{
	"Project2.sol": {
		"ERC20": {
			"abi": [
				{
					"inputs": [
						{
							"internalType": "uint256",
							"name": "total",
							"type": "uint256"
						}
					],
					"stateMutability": "nonpayable",
					"type": "constructor"
				},
				{
					"anonymous": false,
					"inputs": [
						{
							"indexed": true,
							"internalType": "address",
							"name": "_owner",
							"type": "address"
						},
						{
							"indexed": true,
							"internalType": "address",
							"name": "_spender",
							"type": "address"
						},
						{
							"indexed": false,
							"internalType": "uint256",
							"name": "_value",
							"type": "uint256"
						}
					],
					"name": "Approval",
					"type": "event"
				},
				{
					"anonymous": false,
					"inputs": [
						{
							"indexed": true,
							"internalType": "address",
							"name": "_from",
							"type": "address"
						},
						{
							"indexed": true,
							"internalType": "address",
							"name": "_to",
							"type": "address"
						},
						{
							"indexed": false,
							"internalType": "uint256",
							"name": "_value",
							"type": "uint256"
						}
					],
					"name": "Transfer",
					"type": "event"
				},
				{
					"inputs": [
						{
							"internalType": "address",
							"name": "_owner",
							"type": "address"
						},
						{
							"internalType": "address",
							"name": "_spender",
							"type": "address"
						}
					],
					"name": "allowance",
					"outputs": [
						{
							"internalType": "uint256",
							"name": "remaining",
							"type": "uint256"
						}
					],
					"stateMutability": "view",
					"type": "function"
				},
				{
					"inputs": [
						{
							"internalType": "address",
							"name": "_spender",
							"type": "address"
						},
						{
							"internalType": "uint256",
							"name": "_value",
							"type": "uint256"
						}
					],
					"name": "approve",
					"outputs": [
						{
							"internalType": "bool",
							"name": "success",
							"type": "bool"
						}
					],
					"stateMutability": "nonpayable",
					"type": "function"
				},
				{
					"inputs": [
						{
							"internalType": "address",
							"name": "_owner",
							"type": "address"
						}
					],
					"name": "balanceOf",
					"outputs": [
						{
							"internalType": "uint256",
							"name": "balance",
							"type": "uint256"
						}
					],
					"stateMutability": "view",
					"type": "function"
				},
				{
					"inputs": [],
					"name": "decimals",
					"outputs": [
						{
							"internalType": "uint8",
							"name": "",
							"type": "uint8"
						}
					],
					"stateMutability": "view",
					"type": "function"
				},
				{
					"inputs": [],
					"name": "name",
					"outputs": [
						{
							"internalType": "string",
							"name": "",
							"type": "string"
						}
					],
					"stateMutability": "view",
					"type": "function"
				},
				{
					"inputs": [],
					"name": "symbol",
					"outputs": [
						{
							"internalType": "string",
							"name": "",
							"type": "string"
						}
					],
					"stateMutability": "view",
					"type": "function"
				},
				{
					"inputs": [],
					"name": "totalSupply",
					"outputs": [
						{
							"internalType": "uint256",
							"name": "",
							"type": "uint256"
						}
					],
					"stateMutability": "view",
					"type": "function"
				},
				{
					"inputs": [
						{
							"internalType": "address",
							"name": "_to",
							"type": "address"
						},
						{
							"internalType": "uint256",
							"name": "_value",
							"type": "uint256"
						}
					],
					"name": "transfer",
					"outputs": [
						{
							"internalType": "bool",
							"name": "success",
							"type": "bool"
						}
					],
					"stateMutability": "nonpayable",
					"type": "function"
				},
				{
					"inputs": [
						{
							"internalType": "address",
							"name": "_from",
							"type": "address"
						},
						{
							"internalType": "address",
							"name": "_to",
							"type": "address"
						},
						{
							"internalType": "uint256",
							"name": "_value",
							"type": "uint256"
						}
					],
					"name": "transferFrom",
					"outputs": [
						{
							"internalType": "bool",
							"name": "",
							"type": "bool"
						}
					],
					"stateMutability": "nonpayable",
					"type": "function"
				}
			],
			"devdoc": {
				"kind": "dev",
				"methods": {},
				"version": 1
			},
			"evm": {
				"assembly": "    /* \"Project2.sol\":70:2294  contract ERC20 {... */\n  mstore(0x40, 0x80)\n    /* \"Project2.sol\":92:117  string _name = \"A738BFDE\" */\n  mload(0x40)\n  dup1\n  0x40\n  add\n  0x40\n  mstore\n  dup1\n  0x08\n  dup2\n  mstore\n  0x20\n  add\n  0x4137333842464445000000000000000000000000000000000000000000000000\n  dup2\n  mstore\n  pop\n  0x00\n  swap1\n  dup1\n  mload\n  swap1\n  0x20\n  add\n  swap1\n  tag_1\n  swap3\n  swap2\n  swap1\n  tag_2\n  jump\t// in\ntag_1:\n  pop\n    /* \"Project2.sol\":124:151  string _symbol = \"E2CA1EFA\" */\n  mload(0x40)\n  dup1\n  0x40\n  add\n  0x40\n  mstore\n  dup1\n  0x08\n  dup2\n  mstore\n  0x20\n  add\n  0x4532434131454641000000000000000000000000000000000000000000000000\n  dup2\n  mstore\n  pop\n  0x01\n  swap1\n  dup1\n  mload\n  swap1\n  0x20\n  add\n  swap1\n  tag_3\n  swap3\n  swap2\n  swap1\n  tag_2\n  jump\t// in\ntag_3:\n  pop\n    /* \"Project2.sol\":175:176  0 */\n  0x00\n    /* \"Project2.sol\":158:176  uint8 _decimal = 0 */\n  0x02\n  exp(0x0100, 0x00)\n  dup2\n  sload\n  dup2\n  0xff\n  mul\n  not\n  and\n  swap1\n  dup4\n  0xff\n  and\n  mul\n  or\n  swap1\n  sstore\n  pop\n    /* \"Project2.sol\":344:461  constructor(uint256 total) public {... */\n  callvalue\n  dup1\n  iszero\n  tag_4\n  jumpi\n  0x00\n  dup1\n  revert\ntag_4:\n  pop\n  mload(0x40)\n  sub(codesize, bytecodeSize)\n  dup1\n  bytecodeSize\n  dup4\n  codecopy\n  dup2\n  dup2\n  add\n  0x40\n  mstore\n  dup2\n  add\n  swap1\n  tag_5\n  swap2\n  swap1\n  tag_6\n  jump\t// in\ntag_5:\n    /* \"Project2.sol\":403:408  total */\n  dup1\n    /* \"Project2.sol\":388:400  _totalSupply */\n  0x05\n    /* \"Project2.sol\":388:408  _totalSupply = total */\n  dup2\n  swap1\n  sstore\n  pop\n    /* \"Project2.sol\":442:454  _totalSupply */\n  sload(0x05)\n    /* \"Project2.sol\":418:427  _balances */\n  0x03\n    /* \"Project2.sol\":418:439  _balances[msg.sender] */\n  0x00\n    /* \"Project2.sol\":428:438  msg.sender */\n  caller\n    /* \"Project2.sol\":418:439  _balances[msg.sender] */\n  0xffffffffffffffffffffffffffffffffffffffff\n  and\n  0xffffffffffffffffffffffffffffffffffffffff\n  and\n  dup2\n  mstore\n  0x20\n  add\n  swap1\n  dup2\n  mstore\n  0x20\n  add\n  0x00\n  keccak256\n    /* \"Project2.sol\":418:454  _balances[msg.sender] = _totalSupply */\n  dup2\n  swap1\n  sstore\n  pop\n    /* \"Project2.sol\":344:461  constructor(uint256 total) public {... */\n  pop\n    /* \"Project2.sol\":70:2294  contract ERC20 {... */\n  jump(tag_9)\ntag_2:\n  dup3\n  dup1\n  sload\n  tag_10\n  swap1\n  tag_11\n  jump\t// in\ntag_10:\n  swap1\n  0x00\n  mstore\n  keccak256(0x00, 0x20)\n  swap1\n  0x1f\n  add\n  0x20\n  swap1\n  div\n  dup2\n  add\n  swap3\n  dup3\n  tag_13\n  jumpi\n  0x00\n  dup6\n  sstore\n  jump(tag_12)\ntag_13:\n  dup3\n  0x1f\n  lt\n  tag_14\n  jumpi\n  dup1\n  mload\n  not(0xff)\n  and\n  dup4\n  dup1\n  add\n  or\n  dup6\n  sstore\n  jump(tag_12)\ntag_14:\n  dup3\n  dup1\n  add\n  0x01\n  add\n  dup6\n  sstore\n  dup3\n  iszero\n  tag_12\n  jumpi\n  swap2\n  dup3\n  add\ntag_15:\n  dup3\n  dup2\n  gt\n  iszero\n  tag_16\n  jumpi\n  dup3\n  mload\n  dup3\n  sstore\n  swap2\n  0x20\n  add\n  swap2\n  swap1\n  0x01\n  add\n  swap1\n  jump(tag_15)\ntag_16:\ntag_12:\n  pop\n  swap1\n  pop\n  tag_17\n  swap2\n  swap1\n  tag_18\n  jump\t// in\ntag_17:\n  pop\n  swap1\n  jump\t// out\ntag_18:\ntag_19:\n  dup1\n  dup3\n  gt\n  iszero\n  tag_20\n  jumpi\n  0x00\n  dup2\n  0x00\n  swap1\n  sstore\n  pop\n  0x01\n  add\n  jump(tag_19)\ntag_20:\n  pop\n  swap1\n  jump\t// out\n    /* \"#utility.yul\":7:150   */\ntag_22:\n    /* \"#utility.yul\":64:69   */\n  0x00\n    /* \"#utility.yul\":95:101   */\n  dup2\n    /* \"#utility.yul\":89:102   */\n  mload\n    /* \"#utility.yul\":80:102   */\n  swap1\n  pop\n    /* \"#utility.yul\":111:144   */\n  tag_24\n    /* \"#utility.yul\":138:143   */\n  dup2\n    /* \"#utility.yul\":111:144   */\n  tag_25\n  jump\t// in\ntag_24:\n    /* \"#utility.yul\":7:150   */\n  swap3\n  swap2\n  pop\n  pop\n  jump\t// out\n    /* \"#utility.yul\":156:507   */\ntag_6:\n    /* \"#utility.yul\":226:232   */\n  0x00\n    /* \"#utility.yul\":275:277   */\n  0x20\n    /* \"#utility.yul\":263:272   */\n  dup3\n    /* \"#utility.yul\":254:261   */\n  dup5\n    /* \"#utility.yul\":250:273   */\n  sub\n    /* \"#utility.yul\":246:278   */\n  slt\n    /* \"#utility.yul\":243:362   */\n  iszero\n  tag_27\n  jumpi\n    /* \"#utility.yul\":281:360   */\n  tag_28\n  tag_29\n  jump\t// in\ntag_28:\n    /* \"#utility.yul\":243:362   */\ntag_27:\n    /* \"#utility.yul\":401:402   */\n  0x00\n    /* \"#utility.yul\":426:490   */\n  tag_30\n    /* \"#utility.yul\":482:489   */\n  dup5\n    /* \"#utility.yul\":473:479   */\n  dup3\n    /* \"#utility.yul\":462:471   */\n  dup6\n    /* \"#utility.yul\":458:480   */\n  add\n    /* \"#utility.yul\":426:490   */\n  tag_22\n  jump\t// in\ntag_30:\n    /* \"#utility.yul\":416:490   */\n  swap2\n  pop\n    /* \"#utility.yul\":372:500   */\n  pop\n    /* \"#utility.yul\":156:507   */\n  swap3\n  swap2\n  pop\n  pop\n  jump\t// out\n    /* \"#utility.yul\":594:671   */\ntag_33:\n    /* \"#utility.yul\":631:638   */\n  0x00\n    /* \"#utility.yul\":660:665   */\n  dup2\n    /* \"#utility.yul\":649:665   */\n  swap1\n  pop\n    /* \"#utility.yul\":594:671   */\n  swap2\n  swap1\n  pop\n  jump\t// out\n    /* \"#utility.yul\":677:997   */\ntag_11:\n    /* \"#utility.yul\":721:727   */\n  0x00\n    /* \"#utility.yul\":758:759   */\n  0x02\n    /* \"#utility.yul\":752:756   */\n  dup3\n    /* \"#utility.yul\":748:760   */\n  div\n    /* \"#utility.yul\":738:760   */\n  swap1\n  pop\n    /* \"#utility.yul\":805:806   */\n  0x01\n    /* \"#utility.yul\":799:803   */\n  dup3\n    /* \"#utility.yul\":795:807   */\n  and\n    /* \"#utility.yul\":826:844   */\n  dup1\n    /* \"#utility.yul\":816:897   */\n  tag_36\n  jumpi\n    /* \"#utility.yul\":882:886   */\n  0x7f\n    /* \"#utility.yul\":874:880   */\n  dup3\n    /* \"#utility.yul\":870:887   */\n  and\n    /* \"#utility.yul\":860:887   */\n  swap2\n  pop\n    /* \"#utility.yul\":816:897   */\ntag_36:\n    /* \"#utility.yul\":944:946   */\n  0x20\n    /* \"#utility.yul\":936:942   */\n  dup3\n    /* \"#utility.yul\":933:947   */\n  lt\n    /* \"#utility.yul\":913:931   */\n  dup2\n    /* \"#utility.yul\":910:948   */\n  eq\n    /* \"#utility.yul\":907:991   */\n  iszero\n  tag_37\n  jumpi\n    /* \"#utility.yul\":963:981   */\n  tag_38\n  tag_39\n  jump\t// in\ntag_38:\n    /* \"#utility.yul\":907:991   */\ntag_37:\n    /* \"#utility.yul\":728:997   */\n  pop\n    /* \"#utility.yul\":677:997   */\n  swap2\n  swap1\n  pop\n  jump\t// out\n    /* \"#utility.yul\":1003:1183   */\ntag_39:\n    /* \"#utility.yul\":1051:1128   */\n  0x4e487b7100000000000000000000000000000000000000000000000000000000\n    /* \"#utility.yul\":1048:1049   */\n  0x00\n    /* \"#utility.yul\":1041:1129   */\n  mstore\n    /* \"#utility.yul\":1148:1152   */\n  0x22\n    /* \"#utility.yul\":1145:1146   */\n  0x04\n    /* \"#utility.yul\":1138:1153   */\n  mstore\n    /* \"#utility.yul\":1172:1176   */\n  0x24\n    /* \"#utility.yul\":1169:1170   */\n  0x00\n    /* \"#utility.yul\":1162:1177   */\n  revert\n    /* \"#utility.yul\":1312:1429   */\ntag_29:\n    /* \"#utility.yul\":1421:1422   */\n  0x00\n    /* \"#utility.yul\":1418:1419   */\n  dup1\n    /* \"#utility.yul\":1411:1423   */\n  revert\n    /* \"#utility.yul\":1435:1557   */\ntag_25:\n    /* \"#utility.yul\":1508:1532   */\n  tag_45\n    /* \"#utility.yul\":1526:1531   */\n  dup2\n    /* \"#utility.yul\":1508:1532   */\n  tag_33\n  jump\t// in\ntag_45:\n    /* \"#utility.yul\":1501:1506   */\n  dup2\n    /* \"#utility.yul\":1498:1533   */\n  eq\n    /* \"#utility.yul\":1488:1551   */\n  tag_46\n  jumpi\n    /* \"#utility.yul\":1547:1548   */\n  0x00\n    /* \"#utility.yul\":1544:1545   */\n  dup1\n    /* \"#utility.yul\":1537:1549   */\n  revert\n    /* \"#utility.yul\":1488:1551   */\ntag_46:\n    /* \"#utility.yul\":1435:1557   */\n  pop\n  jump\t// out\n    /* \"Project2.sol\":70:2294  contract ERC20 {... */\ntag_9:\n  dataSize(sub_0)\n  dup1\n  dataOffset(sub_0)\n  0x00\n  codecopy\n  0x00\n  return\nstop\n\nsub_0: assembly {\n        /* \"Project2.sol\":70:2294  contract ERC20 {... */\n      mstore(0x40, 0x80)\n      callvalue\n      dup1\n      iszero\n      tag_1\n      jumpi\n      0x00\n      dup1\n      revert\n    tag_1:\n      pop\n      jumpi(tag_2, lt(calldatasize, 0x04))\n      shr(0xe0, calldataload(0x00))\n      dup1\n      0x313ce567\n      gt\n      tag_12\n      jumpi\n      dup1\n      0x313ce567\n      eq\n      tag_7\n      jumpi\n      dup1\n      0x70a08231\n      eq\n      tag_8\n      jumpi\n      dup1\n      0x95d89b41\n      eq\n      tag_9\n      jumpi\n      dup1\n      0xa9059cbb\n      eq\n      tag_10\n      jumpi\n      dup1\n      0xdd62ed3e\n      eq\n      tag_11\n      jumpi\n      jump(tag_2)\n    tag_12:\n      dup1\n      0x06fdde03\n      eq\n      tag_3\n      jumpi\n      dup1\n      0x095ea7b3\n      eq\n      tag_4\n      jumpi\n      dup1\n      0x18160ddd\n      eq\n      tag_5\n      jumpi\n      dup1\n      0x23b872dd\n      eq\n      tag_6\n      jumpi\n    tag_2:\n      0x00\n      dup1\n      revert\n        /* \"Project2.sol\":467:552  function name() public view returns (string memory)... */\n    tag_3:\n      tag_13\n      tag_14\n      jump\t// in\n    tag_13:\n      mload(0x40)\n      tag_15\n      swap2\n      swap1\n      tag_16\n      jump\t// in\n    tag_15:\n      mload(0x40)\n      dup1\n      swap2\n      sub\n      swap1\n      return\n        /* \"Project2.sol\":1303:1518  function approve(address _spender, uint256 _value) public returns (bool success)... */\n    tag_4:\n      tag_17\n      0x04\n      dup1\n      calldatasize\n      sub\n      dup2\n      add\n      swap1\n      tag_18\n      swap2\n      swap1\n      tag_19\n      jump\t// in\n    tag_18:\n      tag_20\n      jump\t// in\n    tag_17:\n      mload(0x40)\n      tag_21\n      swap2\n      swap1\n      tag_22\n      jump\t// in\n    tag_21:\n      mload(0x40)\n      dup1\n      swap2\n      sub\n      swap1\n      return\n        /* \"Project2.sol\":746:839  function totalSupply() public view returns (uint256)... */\n    tag_5:\n      tag_23\n      tag_24\n      jump\t// in\n    tag_23:\n      mload(0x40)\n      tag_25\n      swap2\n      swap1\n      tag_26\n      jump\t// in\n    tag_25:\n      mload(0x40)\n      dup1\n      swap2\n      sub\n      swap1\n      return\n        /* \"Project2.sol\":1678:2123  function transferFrom(address _from, address _to, uint256 _value) public returns (bool) ... */\n    tag_6:\n      tag_27\n      0x04\n      dup1\n      calldatasize\n      sub\n      dup2\n      add\n      swap1\n      tag_28\n      swap2\n      swap1\n      tag_29\n      jump\t// in\n    tag_28:\n      tag_30\n      jump\t// in\n    tag_27:\n      mload(0x40)\n      tag_31\n      swap2\n      swap1\n      tag_22\n      jump\t// in\n    tag_31:\n      mload(0x40)\n      dup1\n      swap2\n      sub\n      swap1\n      return\n        /* \"Project2.sol\":655:739  function decimals() public view returns (uint8)... */\n    tag_7:\n      tag_32\n      tag_33\n      jump\t// in\n    tag_32:\n      mload(0x40)\n      tag_34\n      swap2\n      swap1\n      tag_35\n      jump\t// in\n    tag_34:\n      mload(0x40)\n      dup1\n      swap2\n      sub\n      swap1\n      return\n        /* \"Project2.sol\":846:964  function balanceOf(address _owner) public view returns (uint256 balance)... */\n    tag_8:\n      tag_36\n      0x04\n      dup1\n      calldatasize\n      sub\n      dup2\n      add\n      swap1\n      tag_37\n      swap2\n      swap1\n      tag_38\n      jump\t// in\n    tag_37:\n      tag_39\n      jump\t// in\n    tag_36:\n      mload(0x40)\n      tag_40\n      swap2\n      swap1\n      tag_26\n      jump\t// in\n    tag_40:\n      mload(0x40)\n      dup1\n      swap2\n      sub\n      swap1\n      return\n        /* \"Project2.sol\":559:648  function symbol() public view returns (string memory)... */\n    tag_9:\n      tag_41\n      tag_42\n      jump\t// in\n    tag_41:\n      mload(0x40)\n      tag_43\n      swap2\n      swap1\n      tag_16\n      jump\t// in\n    tag_43:\n      mload(0x40)\n      dup1\n      swap2\n      sub\n      swap1\n      return\n        /* \"Project2.sol\":970:1292  function transfer(address _to, uint256 _value) public returns (bool success)... */\n    tag_10:\n      tag_44\n      0x04\n      dup1\n      calldatasize\n      sub\n      dup2\n      add\n      swap1\n      tag_45\n      swap2\n      swap1\n      tag_19\n      jump\t// in\n    tag_45:\n      tag_46\n      jump\t// in\n    tag_44:\n      mload(0x40)\n      tag_47\n      swap2\n      swap1\n      tag_22\n      jump\t// in\n    tag_47:\n      mload(0x40)\n      dup1\n      swap2\n      sub\n      swap1\n      return\n        /* \"Project2.sol\":1525:1672  function allowance(address _owner, address _spender) public view returns (uint256 remaining)... */\n    tag_11:\n      tag_48\n      0x04\n      dup1\n      calldatasize\n      sub\n      dup2\n      add\n      swap1\n      tag_49\n      swap2\n      swap1\n      tag_50\n      jump\t// in\n    tag_49:\n      tag_51\n      jump\t// in\n    tag_48:\n      mload(0x40)\n      tag_52\n      swap2\n      swap1\n      tag_26\n      jump\t// in\n    tag_52:\n      mload(0x40)\n      dup1\n      swap2\n      sub\n      swap1\n      return\n        /* \"Project2.sol\":467:552  function name() public view returns (string memory)... */\n    tag_14:\n        /* \"Project2.sol\":504:517  string memory */\n      0x60\n        /* \"Project2.sol\":540:545  _name */\n      0x00\n        /* \"Project2.sol\":533:545  return _name */\n      dup1\n      sload\n      tag_54\n      swap1\n      tag_55\n      jump\t// in\n    tag_54:\n      dup1\n      0x1f\n      add\n      0x20\n      dup1\n      swap2\n      div\n      mul\n      0x20\n      add\n      mload(0x40)\n      swap1\n      dup2\n      add\n      0x40\n      mstore\n      dup1\n      swap3\n      swap2\n      swap1\n      dup2\n      dup2\n      mstore\n      0x20\n      add\n      dup3\n      dup1\n      sload\n      tag_56\n      swap1\n      tag_55\n      jump\t// in\n    tag_56:\n      dup1\n      iszero\n      tag_57\n      jumpi\n      dup1\n      0x1f\n      lt\n      tag_58\n      jumpi\n      0x0100\n      dup1\n      dup4\n      sload\n      div\n      mul\n      dup4\n      mstore\n      swap2\n      0x20\n      add\n      swap2\n      jump(tag_57)\n    tag_58:\n      dup3\n      add\n      swap2\n      swap1\n      0x00\n      mstore\n      keccak256(0x00, 0x20)\n      swap1\n    tag_59:\n      dup2\n      sload\n      dup2\n      mstore\n      swap1\n      0x01\n      add\n      swap1\n      0x20\n      add\n      dup1\n      dup4\n      gt\n      tag_59\n      jumpi\n      dup3\n      swap1\n      sub\n      0x1f\n      and\n      dup3\n      add\n      swap2\n    tag_57:\n      pop\n      pop\n      pop\n      pop\n      pop\n      swap1\n      pop\n        /* \"Project2.sol\":467:552  function name() public view returns (string memory)... */\n      swap1\n      jump\t// out\n        /* \"Project2.sol\":1303:1518  function approve(address _spender, uint256 _value) public returns (bool success)... */\n    tag_20:\n        /* \"Project2.sol\":1370:1382  bool success */\n      0x00\n        /* \"Project2.sol\":1431:1437  _value */\n      dup2\n        /* \"Project2.sol\":1398:1406  _allowed */\n      0x04\n        /* \"Project2.sol\":1398:1418  _allowed[msg.sender] */\n      0x00\n        /* \"Project2.sol\":1407:1417  msg.sender */\n      caller\n        /* \"Project2.sol\":1398:1418  _allowed[msg.sender] */\n      0xffffffffffffffffffffffffffffffffffffffff\n      and\n      0xffffffffffffffffffffffffffffffffffffffff\n      and\n      dup2\n      mstore\n      0x20\n      add\n      swap1\n      dup2\n      mstore\n      0x20\n      add\n      0x00\n      keccak256\n        /* \"Project2.sol\":1398:1428  _allowed[msg.sender][_spender] */\n      0x00\n        /* \"Project2.sol\":1419:1427  _spender */\n      dup6\n        /* \"Project2.sol\":1398:1428  _allowed[msg.sender][_spender] */\n      0xffffffffffffffffffffffffffffffffffffffff\n      and\n      0xffffffffffffffffffffffffffffffffffffffff\n      and\n      dup2\n      mstore\n      0x20\n      add\n      swap1\n      dup2\n      mstore\n      0x20\n      add\n      0x00\n      keccak256\n        /* \"Project2.sol\":1398:1437  _allowed[msg.sender][_spender] = _value */\n      dup2\n      swap1\n      sstore\n      pop\n        /* \"Project2.sol\":1473:1481  _spender */\n      dup3\n        /* \"Project2.sol\":1452:1490  Approval(msg.sender, _spender, _value) */\n      0xffffffffffffffffffffffffffffffffffffffff\n      and\n        /* \"Project2.sol\":1461:1471  msg.sender */\n      caller\n        /* \"Project2.sol\":1452:1490  Approval(msg.sender, _spender, _value) */\n      0xffffffffffffffffffffffffffffffffffffffff\n      and\n      0x8c5be1e5ebec7d5bd14f71427d1e84f3dd0314c0f7b2291e5b200ac8c7c3b925\n        /* \"Project2.sol\":1483:1489  _value */\n      dup5\n        /* \"Project2.sol\":1452:1490  Approval(msg.sender, _spender, _value) */\n      mload(0x40)\n      tag_61\n      swap2\n      swap1\n      tag_26\n      jump\t// in\n    tag_61:\n      mload(0x40)\n      dup1\n      swap2\n      sub\n      swap1\n      log3\n        /* \"Project2.sol\":1507:1511  true */\n      0x01\n        /* \"Project2.sol\":1500:1511  return true */\n      swap1\n      pop\n        /* \"Project2.sol\":1303:1518  function approve(address _spender, uint256 _value) public returns (bool success)... */\n      swap3\n      swap2\n      pop\n      pop\n      jump\t// out\n        /* \"Project2.sol\":746:839  function totalSupply() public view returns (uint256)... */\n    tag_24:\n        /* \"Project2.sol\":790:797  uint256 */\n      0x00\n        /* \"Project2.sol\":820:832  _totalSupply */\n      sload(0x05)\n        /* \"Project2.sol\":813:832  return _totalSupply */\n      swap1\n      pop\n        /* \"Project2.sol\":746:839  function totalSupply() public view returns (uint256)... */\n      swap1\n      jump\t// out\n        /* \"Project2.sol\":1678:2123  function transferFrom(address _from, address _to, uint256 _value) public returns (bool) ... */\n    tag_30:\n        /* \"Project2.sol\":1760:1764  bool */\n      0x00\n        /* \"Project2.sol\":1799:1808  _balances */\n      0x03\n        /* \"Project2.sol\":1799:1815  _balances[_from] */\n      0x00\n        /* \"Project2.sol\":1809:1814  _from */\n      dup6\n        /* \"Project2.sol\":1799:1815  _balances[_from] */\n      0xffffffffffffffffffffffffffffffffffffffff\n      and\n      0xffffffffffffffffffffffffffffffffffffffff\n      and\n      dup2\n      mstore\n      0x20\n      add\n      swap1\n      dup2\n      mstore\n      0x20\n      add\n      0x00\n      keccak256\n      sload\n        /* \"Project2.sol\":1789:1795  _value */\n      dup3\n        /* \"Project2.sol\":1789:1815  _value <= _balances[_from] */\n      gt\n      iszero\n        /* \"Project2.sol\":1781:1816  require(_value <= _balances[_from]) */\n      tag_64\n      jumpi\n      0x00\n      dup1\n      revert\n    tag_64:\n        /* \"Project2.sol\":1844:1852  _allowed */\n      0x04\n        /* \"Project2.sol\":1844:1859  _allowed[_from] */\n      0x00\n        /* \"Project2.sol\":1853:1858  _from */\n      dup6\n        /* \"Project2.sol\":1844:1859  _allowed[_from] */\n      0xffffffffffffffffffffffffffffffffffffffff\n      and\n      0xffffffffffffffffffffffffffffffffffffffff\n      and\n      dup2\n      mstore\n      0x20\n      add\n      swap1\n      dup2\n      mstore\n      0x20\n      add\n      0x00\n      keccak256\n        /* \"Project2.sol\":1844:1871  _allowed[_from][msg.sender] */\n      0x00\n        /* \"Project2.sol\":1860:1870  msg.sender */\n      caller\n        /* \"Project2.sol\":1844:1871  _allowed[_from][msg.sender] */\n      0xffffffffffffffffffffffffffffffffffffffff\n      and\n      0xffffffffffffffffffffffffffffffffffffffff\n      and\n      dup2\n      mstore\n      0x20\n      add\n      swap1\n      dup2\n      mstore\n      0x20\n      add\n      0x00\n      keccak256\n      sload\n        /* \"Project2.sol\":1834:1840  _value */\n      dup3\n        /* \"Project2.sol\":1834:1871  _value <= _allowed[_from][msg.sender] */\n      gt\n      iszero\n        /* \"Project2.sol\":1826:1872  require(_value <= _allowed[_from][msg.sender]) */\n      tag_65\n      jumpi\n      0x00\n      dup1\n      revert\n    tag_65:\n        /* \"Project2.sol\":1920:1926  _value */\n      dup2\n        /* \"Project2.sol\":1901:1910  _balances */\n      0x03\n        /* \"Project2.sol\":1901:1917  _balances[_from] */\n      0x00\n        /* \"Project2.sol\":1911:1916  _from */\n      dup7\n        /* \"Project2.sol\":1901:1917  _balances[_from] */\n      0xffffffffffffffffffffffffffffffffffffffff\n      and\n      0xffffffffffffffffffffffffffffffffffffffff\n      and\n      dup2\n      mstore\n      0x20\n      add\n      swap1\n      dup2\n      mstore\n      0x20\n      add\n      0x00\n      keccak256\n      sload\n        /* \"Project2.sol\":1901:1926  _balances[_from] - _value */\n      tag_66\n      swap2\n      swap1\n      tag_67\n      jump\t// in\n    tag_66:\n        /* \"Project2.sol\":1882:1891  _balances */\n      0x03\n        /* \"Project2.sol\":1882:1898  _balances[_from] */\n      0x00\n        /* \"Project2.sol\":1892:1897  _from */\n      dup7\n        /* \"Project2.sol\":1882:1898  _balances[_from] */\n      0xffffffffffffffffffffffffffffffffffffffff\n      and\n      0xffffffffffffffffffffffffffffffffffffffff\n      and\n      dup2\n      mstore\n      0x20\n      add\n      swap1\n      dup2\n      mstore\n      0x20\n      add\n      0x00\n      keccak256\n        /* \"Project2.sol\":1882:1926  _balances[_from] = _balances[_from] - _value */\n      dup2\n      swap1\n      sstore\n      pop\n        /* \"Project2.sol\":1996:2002  _value */\n      dup2\n        /* \"Project2.sol\":1966:1974  _allowed */\n      0x04\n        /* \"Project2.sol\":1966:1981  _allowed[_from] */\n      0x00\n        /* \"Project2.sol\":1975:1980  _from */\n      dup7\n        /* \"Project2.sol\":1966:1981  _allowed[_from] */\n      0xffffffffffffffffffffffffffffffffffffffff\n      and\n      0xffffffffffffffffffffffffffffffffffffffff\n      and\n      dup2\n      mstore\n      0x20\n      add\n      swap1\n      dup2\n      mstore\n      0x20\n      add\n      0x00\n      keccak256\n        /* \"Project2.sol\":1966:1993  _allowed[_from][msg.sender] */\n      0x00\n        /* \"Project2.sol\":1982:1992  msg.sender */\n      caller\n        /* \"Project2.sol\":1966:1993  _allowed[_from][msg.sender] */\n      0xffffffffffffffffffffffffffffffffffffffff\n      and\n      0xffffffffffffffffffffffffffffffffffffffff\n      and\n      dup2\n      mstore\n      0x20\n      add\n      swap1\n      dup2\n      mstore\n      0x20\n      add\n      0x00\n      keccak256\n      sload\n        /* \"Project2.sol\":1966:2002  _allowed[_from][msg.sender] - _value */\n      tag_68\n      swap2\n      swap1\n      tag_67\n      jump\t// in\n    tag_68:\n        /* \"Project2.sol\":1936:1944  _allowed */\n      0x04\n        /* \"Project2.sol\":1936:1951  _allowed[_from] */\n      0x00\n        /* \"Project2.sol\":1945:1950  _from */\n      dup7\n        /* \"Project2.sol\":1936:1951  _allowed[_from] */\n      0xffffffffffffffffffffffffffffffffffffffff\n      and\n      0xffffffffffffffffffffffffffffffffffffffff\n      and\n      dup2\n      mstore\n      0x20\n      add\n      swap1\n      dup2\n      mstore\n      0x20\n      add\n      0x00\n      keccak256\n        /* \"Project2.sol\":1936:1963  _allowed[_from][msg.sender] */\n      0x00\n        /* \"Project2.sol\":1952:1962  msg.sender */\n      caller\n        /* \"Project2.sol\":1936:1963  _allowed[_from][msg.sender] */\n      0xffffffffffffffffffffffffffffffffffffffff\n      and\n      0xffffffffffffffffffffffffffffffffffffffff\n      and\n      dup2\n      mstore\n      0x20\n      add\n      swap1\n      dup2\n      mstore\n      0x20\n      add\n      0x00\n      keccak256\n        /* \"Project2.sol\":1936:2002  _allowed[_from][msg.sender] = _allowed[_from][msg.sender] - _value */\n      dup2\n      swap1\n      sstore\n      pop\n        /* \"Project2.sol\":2046:2052  _value */\n      dup2\n        /* \"Project2.sol\":2029:2038  _balances */\n      0x03\n        /* \"Project2.sol\":2029:2043  _balances[_to] */\n      0x00\n        /* \"Project2.sol\":2039:2042  _to */\n      dup6\n        /* \"Project2.sol\":2029:2043  _balances[_to] */\n      0xffffffffffffffffffffffffffffffffffffffff\n      and\n      0xffffffffffffffffffffffffffffffffffffffff\n      and\n      dup2\n      mstore\n      0x20\n      add\n      swap1\n      dup2\n      mstore\n      0x20\n      add\n      0x00\n      keccak256\n      sload\n        /* \"Project2.sol\":2029:2052  _balances[_to] + _value */\n      tag_69\n      swap2\n      swap1\n      tag_70\n      jump\t// in\n    tag_69:\n        /* \"Project2.sol\":2012:2021  _balances */\n      0x03\n        /* \"Project2.sol\":2012:2026  _balances[_to] */\n      0x00\n        /* \"Project2.sol\":2022:2025  _to */\n      dup6\n        /* \"Project2.sol\":2012:2026  _balances[_to] */\n      0xffffffffffffffffffffffffffffffffffffffff\n      and\n      0xffffffffffffffffffffffffffffffffffffffff\n      and\n      dup2\n      mstore\n      0x20\n      add\n      swap1\n      dup2\n      mstore\n      0x20\n      add\n      0x00\n      keccak256\n        /* \"Project2.sol\":2012:2052  _balances[_to] = _balances[_to] + _value */\n      dup2\n      swap1\n      sstore\n      pop\n        /* \"Project2.sol\":2083:2086  _to */\n      dup3\n        /* \"Project2.sol\":2067:2095  Transfer(_from, _to, _value) */\n      0xffffffffffffffffffffffffffffffffffffffff\n      and\n        /* \"Project2.sol\":2076:2081  _from */\n      dup5\n        /* \"Project2.sol\":2067:2095  Transfer(_from, _to, _value) */\n      0xffffffffffffffffffffffffffffffffffffffff\n      and\n      0xddf252ad1be2c89b69c2b068fc378daa952ba7f163c4a11628f55a4df523b3ef\n        /* \"Project2.sol\":2088:2094  _value */\n      dup5\n        /* \"Project2.sol\":2067:2095  Transfer(_from, _to, _value) */\n      mload(0x40)\n      tag_71\n      swap2\n      swap1\n      tag_26\n      jump\t// in\n    tag_71:\n      mload(0x40)\n      dup1\n      swap2\n      sub\n      swap1\n      log3\n        /* \"Project2.sol\":2112:2116  true */\n      0x01\n        /* \"Project2.sol\":2105:2116  return true */\n      swap1\n      pop\n        /* \"Project2.sol\":1678:2123  function transferFrom(address _from, address _to, uint256 _value) public returns (bool) ... */\n      swap4\n      swap3\n      pop\n      pop\n      pop\n      jump\t// out\n        /* \"Project2.sol\":655:739  function decimals() public view returns (uint8)... */\n    tag_33:\n        /* \"Project2.sol\":696:701  uint8 */\n      0x00\n        /* \"Project2.sol\":724:732  _decimal */\n      0x02\n      0x00\n      swap1\n      sload\n      swap1\n      0x0100\n      exp\n      swap1\n      div\n      0xff\n      and\n        /* \"Project2.sol\":717:732  return _decimal */\n      swap1\n      pop\n        /* \"Project2.sol\":655:739  function decimals() public view returns (uint8)... */\n      swap1\n      jump\t// out\n        /* \"Project2.sol\":846:964  function balanceOf(address _owner) public view returns (uint256 balance)... */\n    tag_39:\n        /* \"Project2.sol\":902:917  uint256 balance */\n      0x00\n        /* \"Project2.sol\":940:949  _balances */\n      0x03\n        /* \"Project2.sol\":940:957  _balances[_owner] */\n      0x00\n        /* \"Project2.sol\":950:956  _owner */\n      dup4\n        /* \"Project2.sol\":940:957  _balances[_owner] */\n      0xffffffffffffffffffffffffffffffffffffffff\n      and\n      0xffffffffffffffffffffffffffffffffffffffff\n      and\n      dup2\n      mstore\n      0x20\n      add\n      swap1\n      dup2\n      mstore\n      0x20\n      add\n      0x00\n      keccak256\n      sload\n        /* \"Project2.sol\":933:957  return _balances[_owner] */\n      swap1\n      pop\n        /* \"Project2.sol\":846:964  function balanceOf(address _owner) public view returns (uint256 balance)... */\n      swap2\n      swap1\n      pop\n      jump\t// out\n        /* \"Project2.sol\":559:648  function symbol() public view returns (string memory)... */\n    tag_42:\n        /* \"Project2.sol\":598:611  string memory */\n      0x60\n        /* \"Project2.sol\":634:641  _symbol */\n      0x01\n        /* \"Project2.sol\":627:641  return _symbol */\n      dup1\n      sload\n      tag_75\n      swap1\n      tag_55\n      jump\t// in\n    tag_75:\n      dup1\n      0x1f\n      add\n      0x20\n      dup1\n      swap2\n      div\n      mul\n      0x20\n      add\n      mload(0x40)\n      swap1\n      dup2\n      add\n      0x40\n      mstore\n      dup1\n      swap3\n      swap2\n      swap1\n      dup2\n      dup2\n      mstore\n      0x20\n      add\n      dup3\n      dup1\n      sload\n      tag_76\n      swap1\n      tag_55\n      jump\t// in\n    tag_76:\n      dup1\n      iszero\n      tag_77\n      jumpi\n      dup1\n      0x1f\n      lt\n      tag_78\n      jumpi\n      0x0100\n      dup1\n      dup4\n      sload\n      div\n      mul\n      dup4\n      mstore\n      swap2\n      0x20\n      add\n      swap2\n      jump(tag_77)\n    tag_78:\n      dup3\n      add\n      swap2\n      swap1\n      0x00\n      mstore\n      keccak256(0x00, 0x20)\n      swap1\n    tag_79:\n      dup2\n      sload\n      dup2\n      mstore\n      swap1\n      0x01\n      add\n      swap1\n      0x20\n      add\n      dup1\n      dup4\n      gt\n      tag_79\n      jumpi\n      dup3\n      swap1\n      sub\n      0x1f\n      and\n      dup3\n      add\n      swap2\n    tag_77:\n      pop\n      pop\n      pop\n      pop\n      pop\n      swap1\n      pop\n        /* \"Project2.sol\":559:648  function symbol() public view returns (string memory)... */\n      swap1\n      jump\t// out\n        /* \"Project2.sol\":970:1292  function transfer(address _to, uint256 _value) public returns (bool success)... */\n    tag_46:\n        /* \"Project2.sol\":1033:1045  bool success */\n      0x00\n        /* \"Project2.sol\":1079:1088  _balances */\n      0x03\n        /* \"Project2.sol\":1079:1100  _balances[msg.sender] */\n      0x00\n        /* \"Project2.sol\":1089:1099  msg.sender */\n      caller\n        /* \"Project2.sol\":1079:1100  _balances[msg.sender] */\n      0xffffffffffffffffffffffffffffffffffffffff\n      and\n      0xffffffffffffffffffffffffffffffffffffffff\n      and\n      dup2\n      mstore\n      0x20\n      add\n      swap1\n      dup2\n      mstore\n      0x20\n      add\n      0x00\n      keccak256\n      sload\n        /* \"Project2.sol\":1069:1075  _value */\n      dup3\n        /* \"Project2.sol\":1069:1100  _value <= _balances[msg.sender] */\n      gt\n      iszero\n        /* \"Project2.sol\":1061:1101  require(_value <= _balances[msg.sender]) */\n      tag_81\n      jumpi\n      0x00\n      dup1\n      revert\n    tag_81:\n        /* \"Project2.sol\":1159:1165  _value */\n      dup2\n        /* \"Project2.sol\":1135:1144  _balances */\n      0x03\n        /* \"Project2.sol\":1135:1156  _balances[msg.sender] */\n      0x00\n        /* \"Project2.sol\":1145:1155  msg.sender */\n      caller\n        /* \"Project2.sol\":1135:1156  _balances[msg.sender] */\n      0xffffffffffffffffffffffffffffffffffffffff\n      and\n      0xffffffffffffffffffffffffffffffffffffffff\n      and\n      dup2\n      mstore\n      0x20\n      add\n      swap1\n      dup2\n      mstore\n      0x20\n      add\n      0x00\n      keccak256\n      sload\n        /* \"Project2.sol\":1135:1165  _balances[msg.sender] - _value */\n      tag_82\n      swap2\n      swap1\n      tag_67\n      jump\t// in\n    tag_82:\n        /* \"Project2.sol\":1111:1120  _balances */\n      0x03\n        /* \"Project2.sol\":1111:1132  _balances[msg.sender] */\n      0x00\n        /* \"Project2.sol\":1121:1131  msg.sender */\n      caller\n        /* \"Project2.sol\":1111:1132  _balances[msg.sender] */\n      0xffffffffffffffffffffffffffffffffffffffff\n      and\n      0xffffffffffffffffffffffffffffffffffffffff\n      and\n      dup2\n      mstore\n      0x20\n      add\n      swap1\n      dup2\n      mstore\n      0x20\n      add\n      0x00\n      keccak256\n        /* \"Project2.sol\":1111:1165  _balances[msg.sender] = _balances[msg.sender] - _value */\n      dup2\n      swap1\n      sstore\n      pop\n        /* \"Project2.sol\":1210:1216  _value */\n      dup2\n        /* \"Project2.sol\":1193:1202  _balances */\n      0x03\n        /* \"Project2.sol\":1193:1207  _balances[_to] */\n      0x00\n        /* \"Project2.sol\":1203:1206  _to */\n      dup6\n        /* \"Project2.sol\":1193:1207  _balances[_to] */\n      0xffffffffffffffffffffffffffffffffffffffff\n      and\n      0xffffffffffffffffffffffffffffffffffffffff\n      and\n      dup2\n      mstore\n      0x20\n      add\n      swap1\n      dup2\n      mstore\n      0x20\n      add\n      0x00\n      keccak256\n      sload\n        /* \"Project2.sol\":1193:1216  _balances[_to] + _value */\n      tag_83\n      swap2\n      swap1\n      tag_70\n      jump\t// in\n    tag_83:\n        /* \"Project2.sol\":1176:1185  _balances */\n      0x03\n        /* \"Project2.sol\":1176:1190  _balances[_to] */\n      0x00\n        /* \"Project2.sol\":1186:1189  _to */\n      dup6\n        /* \"Project2.sol\":1176:1190  _balances[_to] */\n      0xffffffffffffffffffffffffffffffffffffffff\n      and\n      0xffffffffffffffffffffffffffffffffffffffff\n      and\n      dup2\n      mstore\n      0x20\n      add\n      swap1\n      dup2\n      mstore\n      0x20\n      add\n      0x00\n      keccak256\n        /* \"Project2.sol\":1176:1216  _balances[_to] = _balances[_to] + _value */\n      dup2\n      swap1\n      sstore\n      pop\n        /* \"Project2.sol\":1252:1255  _to */\n      dup3\n        /* \"Project2.sol\":1231:1264  Transfer(msg.sender, _to, _value) */\n      0xffffffffffffffffffffffffffffffffffffffff\n      and\n        /* \"Project2.sol\":1240:1250  msg.sender */\n      caller\n        /* \"Project2.sol\":1231:1264  Transfer(msg.sender, _to, _value) */\n      0xffffffffffffffffffffffffffffffffffffffff\n      and\n      0xddf252ad1be2c89b69c2b068fc378daa952ba7f163c4a11628f55a4df523b3ef\n        /* \"Project2.sol\":1257:1263  _value */\n      dup5\n        /* \"Project2.sol\":1231:1264  Transfer(msg.sender, _to, _value) */\n      mload(0x40)\n      tag_84\n      swap2\n      swap1\n      tag_26\n      jump\t// in\n    tag_84:\n      mload(0x40)\n      dup1\n      swap2\n      sub\n      swap1\n      log3\n        /* \"Project2.sol\":1281:1285  true */\n      0x01\n        /* \"Project2.sol\":1274:1285  return true */\n      swap1\n      pop\n        /* \"Project2.sol\":970:1292  function transfer(address _to, uint256 _value) public returns (bool success)... */\n      swap3\n      swap2\n      pop\n      pop\n      jump\t// out\n        /* \"Project2.sol\":1525:1672  function allowance(address _owner, address _spender) public view returns (uint256 remaining)... */\n    tag_51:\n        /* \"Project2.sol\":1599:1616  uint256 remaining */\n      0x00\n        /* \"Project2.sol\":1639:1647  _allowed */\n      0x04\n        /* \"Project2.sol\":1639:1655  _allowed[_owner] */\n      0x00\n        /* \"Project2.sol\":1648:1654  _owner */\n      dup5\n        /* \"Project2.sol\":1639:1655  _allowed[_owner] */\n      0xffffffffffffffffffffffffffffffffffffffff\n      and\n      0xffffffffffffffffffffffffffffffffffffffff\n      and\n      dup2\n      mstore\n      0x20\n      add\n      swap1\n      dup2\n      mstore\n      0x20\n      add\n      0x00\n      keccak256\n        /* \"Project2.sol\":1639:1665  _allowed[_owner][_spender] */\n      0x00\n        /* \"Project2.sol\":1656:1664  _spender */\n      dup4\n        /* \"Project2.sol\":1639:1665  _allowed[_owner][_spender] */\n      0xffffffffffffffffffffffffffffffffffffffff\n      and\n      0xffffffffffffffffffffffffffffffffffffffff\n      and\n      dup2\n      mstore\n      0x20\n      add\n      swap1\n      dup2\n      mstore\n      0x20\n      add\n      0x00\n      keccak256\n      sload\n        /* \"Project2.sol\":1632:1665  return _allowed[_owner][_spender] */\n      swap1\n      pop\n        /* \"Project2.sol\":1525:1672  function allowance(address _owner, address _spender) public view returns (uint256 remaining)... */\n      swap3\n      swap2\n      pop\n      pop\n      jump\t// out\n        /* \"#utility.yul\":7:146   */\n    tag_87:\n        /* \"#utility.yul\":53:58   */\n      0x00\n        /* \"#utility.yul\":91:97   */\n      dup2\n        /* \"#utility.yul\":78:98   */\n      calldataload\n        /* \"#utility.yul\":69:98   */\n      swap1\n      pop\n        /* \"#utility.yul\":107:140   */\n      tag_89\n        /* \"#utility.yul\":134:139   */\n      dup2\n        /* \"#utility.yul\":107:140   */\n      tag_90\n      jump\t// in\n    tag_89:\n        /* \"#utility.yul\":7:146   */\n      swap3\n      swap2\n      pop\n      pop\n      jump\t// out\n        /* \"#utility.yul\":152:291   */\n    tag_91:\n        /* \"#utility.yul\":198:203   */\n      0x00\n        /* \"#utility.yul\":236:242   */\n      dup2\n        /* \"#utility.yul\":223:243   */\n      calldataload\n        /* \"#utility.yul\":214:243   */\n      swap1\n      pop\n        /* \"#utility.yul\":252:285   */\n      tag_93\n        /* \"#utility.yul\":279:284   */\n      dup2\n        /* \"#utility.yul\":252:285   */\n      tag_94\n      jump\t// in\n    tag_93:\n        /* \"#utility.yul\":152:291   */\n      swap3\n      swap2\n      pop\n      pop\n      jump\t// out\n        /* \"#utility.yul\":297:626   */\n    tag_38:\n        /* \"#utility.yul\":356:362   */\n      0x00\n        /* \"#utility.yul\":405:407   */\n      0x20\n        /* \"#utility.yul\":393:402   */\n      dup3\n        /* \"#utility.yul\":384:391   */\n      dup5\n        /* \"#utility.yul\":380:403   */\n      sub\n        /* \"#utility.yul\":376:408   */\n      slt\n        /* \"#utility.yul\":373:492   */\n      iszero\n      tag_96\n      jumpi\n        /* \"#utility.yul\":411:490   */\n      tag_97\n      tag_98\n      jump\t// in\n    tag_97:\n        /* \"#utility.yul\":373:492   */\n    tag_96:\n        /* \"#utility.yul\":531:532   */\n      0x00\n        /* \"#utility.yul\":556:609   */\n      tag_99\n        /* \"#utility.yul\":601:608   */\n      dup5\n        /* \"#utility.yul\":592:598   */\n      dup3\n        /* \"#utility.yul\":581:590   */\n      dup6\n        /* \"#utility.yul\":577:599   */\n      add\n        /* \"#utility.yul\":556:609   */\n      tag_87\n      jump\t// in\n    tag_99:\n        /* \"#utility.yul\":546:609   */\n      swap2\n      pop\n        /* \"#utility.yul\":502:619   */\n      pop\n        /* \"#utility.yul\":297:626   */\n      swap3\n      swap2\n      pop\n      pop\n      jump\t// out\n        /* \"#utility.yul\":632:1106   */\n    tag_50:\n        /* \"#utility.yul\":700:706   */\n      0x00\n        /* \"#utility.yul\":708:714   */\n      dup1\n        /* \"#utility.yul\":757:759   */\n      0x40\n        /* \"#utility.yul\":745:754   */\n      dup4\n        /* \"#utility.yul\":736:743   */\n      dup6\n        /* \"#utility.yul\":732:755   */\n      sub\n        /* \"#utility.yul\":728:760   */\n      slt\n        /* \"#utility.yul\":725:844   */\n      iszero\n      tag_101\n      jumpi\n        /* \"#utility.yul\":763:842   */\n      tag_102\n      tag_98\n      jump\t// in\n    tag_102:\n        /* \"#utility.yul\":725:844   */\n    tag_101:\n        /* \"#utility.yul\":883:884   */\n      0x00\n        /* \"#utility.yul\":908:961   */\n      tag_103\n        /* \"#utility.yul\":953:960   */\n      dup6\n        /* \"#utility.yul\":944:950   */\n      dup3\n        /* \"#utility.yul\":933:942   */\n      dup7\n        /* \"#utility.yul\":929:951   */\n      add\n        /* \"#utility.yul\":908:961   */\n      tag_87\n      jump\t// in\n    tag_103:\n        /* \"#utility.yul\":898:961   */\n      swap3\n      pop\n        /* \"#utility.yul\":854:971   */\n      pop\n        /* \"#utility.yul\":1010:1012   */\n      0x20\n        /* \"#utility.yul\":1036:1089   */\n      tag_104\n        /* \"#utility.yul\":1081:1088   */\n      dup6\n        /* \"#utility.yul\":1072:1078   */\n      dup3\n        /* \"#utility.yul\":1061:1070   */\n      dup7\n        /* \"#utility.yul\":1057:1079   */\n      add\n        /* \"#utility.yul\":1036:1089   */\n      tag_87\n      jump\t// in\n    tag_104:\n        /* \"#utility.yul\":1026:1089   */\n      swap2\n      pop\n        /* \"#utility.yul\":981:1099   */\n      pop\n        /* \"#utility.yul\":632:1106   */\n      swap3\n      pop\n      swap3\n      swap1\n      pop\n      jump\t// out\n        /* \"#utility.yul\":1112:1731   */\n    tag_29:\n        /* \"#utility.yul\":1189:1195   */\n      0x00\n        /* \"#utility.yul\":1197:1203   */\n      dup1\n        /* \"#utility.yul\":1205:1211   */\n      0x00\n        /* \"#utility.yul\":1254:1256   */\n      0x60\n        /* \"#utility.yul\":1242:1251   */\n      dup5\n        /* \"#utility.yul\":1233:1240   */\n      dup7\n        /* \"#utility.yul\":1229:1252   */\n      sub\n        /* \"#utility.yul\":1225:1257   */\n      slt\n        /* \"#utility.yul\":1222:1341   */\n      iszero\n      tag_106\n      jumpi\n        /* \"#utility.yul\":1260:1339   */\n      tag_107\n      tag_98\n      jump\t// in\n    tag_107:\n        /* \"#utility.yul\":1222:1341   */\n    tag_106:\n        /* \"#utility.yul\":1380:1381   */\n      0x00\n        /* \"#utility.yul\":1405:1458   */\n      tag_108\n        /* \"#utility.yul\":1450:1457   */\n      dup7\n        /* \"#utility.yul\":1441:1447   */\n      dup3\n        /* \"#utility.yul\":1430:1439   */\n      dup8\n        /* \"#utility.yul\":1426:1448   */\n      add\n        /* \"#utility.yul\":1405:1458   */\n      tag_87\n      jump\t// in\n    tag_108:\n        /* \"#utility.yul\":1395:1458   */\n      swap4\n      pop\n        /* \"#utility.yul\":1351:1468   */\n      pop\n        /* \"#utility.yul\":1507:1509   */\n      0x20\n        /* \"#utility.yul\":1533:1586   */\n      tag_109\n        /* \"#utility.yul\":1578:1585   */\n      dup7\n        /* \"#utility.yul\":1569:1575   */\n      dup3\n        /* \"#utility.yul\":1558:1567   */\n      dup8\n        /* \"#utility.yul\":1554:1576   */\n      add\n        /* \"#utility.yul\":1533:1586   */\n      tag_87\n      jump\t// in\n    tag_109:\n        /* \"#utility.yul\":1523:1586   */\n      swap3\n      pop\n        /* \"#utility.yul\":1478:1596   */\n      pop\n        /* \"#utility.yul\":1635:1637   */\n      0x40\n        /* \"#utility.yul\":1661:1714   */\n      tag_110\n        /* \"#utility.yul\":1706:1713   */\n      dup7\n        /* \"#utility.yul\":1697:1703   */\n      dup3\n        /* \"#utility.yul\":1686:1695   */\n      dup8\n        /* \"#utility.yul\":1682:1704   */\n      add\n        /* \"#utility.yul\":1661:1714   */\n      tag_91\n      jump\t// in\n    tag_110:\n        /* \"#utility.yul\":1651:1714   */\n      swap2\n      pop\n        /* \"#utility.yul\":1606:1724   */\n      pop\n        /* \"#utility.yul\":1112:1731   */\n      swap3\n      pop\n      swap3\n      pop\n      swap3\n      jump\t// out\n        /* \"#utility.yul\":1737:2211   */\n    tag_19:\n        /* \"#utility.yul\":1805:1811   */\n      0x00\n        /* \"#utility.yul\":1813:1819   */\n      dup1\n        /* \"#utility.yul\":1862:1864   */\n      0x40\n        /* \"#utility.yul\":1850:1859   */\n      dup4\n        /* \"#utility.yul\":1841:1848   */\n      dup6\n        /* \"#utility.yul\":1837:1860   */\n      sub\n        /* \"#utility.yul\":1833:1865   */\n      slt\n        /* \"#utility.yul\":1830:1949   */\n      iszero\n      tag_112\n      jumpi\n        /* \"#utility.yul\":1868:1947   */\n      tag_113\n      tag_98\n      jump\t// in\n    tag_113:\n        /* \"#utility.yul\":1830:1949   */\n    tag_112:\n        /* \"#utility.yul\":1988:1989   */\n      0x00\n        /* \"#utility.yul\":2013:2066   */\n      tag_114\n        /* \"#utility.yul\":2058:2065   */\n      dup6\n        /* \"#utility.yul\":2049:2055   */\n      dup3\n        /* \"#utility.yul\":2038:2047   */\n      dup7\n        /* \"#utility.yul\":2034:2056   */\n      add\n        /* \"#utility.yul\":2013:2066   */\n      tag_87\n      jump\t// in\n    tag_114:\n        /* \"#utility.yul\":2003:2066   */\n      swap3\n      pop\n        /* \"#utility.yul\":1959:2076   */\n      pop\n        /* \"#utility.yul\":2115:2117   */\n      0x20\n        /* \"#utility.yul\":2141:2194   */\n      tag_115\n        /* \"#utility.yul\":2186:2193   */\n      dup6\n        /* \"#utility.yul\":2177:2183   */\n      dup3\n        /* \"#utility.yul\":2166:2175   */\n      dup7\n        /* \"#utility.yul\":2162:2184   */\n      add\n        /* \"#utility.yul\":2141:2194   */\n      tag_91\n      jump\t// in\n    tag_115:\n        /* \"#utility.yul\":2131:2194   */\n      swap2\n      pop\n        /* \"#utility.yul\":2086:2204   */\n      pop\n        /* \"#utility.yul\":1737:2211   */\n      swap3\n      pop\n      swap3\n      swap1\n      pop\n      jump\t// out\n        /* \"#utility.yul\":2217:2326   */\n    tag_116:\n        /* \"#utility.yul\":2298:2319   */\n      tag_118\n        /* \"#utility.yul\":2313:2318   */\n      dup2\n        /* \"#utility.yul\":2298:2319   */\n      tag_119\n      jump\t// in\n    tag_118:\n        /* \"#utility.yul\":2293:2296   */\n      dup3\n        /* \"#utility.yul\":2286:2320   */\n      mstore\n        /* \"#utility.yul\":2217:2326   */\n      pop\n      pop\n      jump\t// out\n        /* \"#utility.yul\":2332:2696   */\n    tag_120:\n        /* \"#utility.yul\":2420:2423   */\n      0x00\n        /* \"#utility.yul\":2448:2487   */\n      tag_122\n        /* \"#utility.yul\":2481:2486   */\n      dup3\n        /* \"#utility.yul\":2448:2487   */\n      tag_123\n      jump\t// in\n    tag_122:\n        /* \"#utility.yul\":2503:2574   */\n      tag_124\n        /* \"#utility.yul\":2567:2573   */\n      dup2\n        /* \"#utility.yul\":2562:2565   */\n      dup6\n        /* \"#utility.yul\":2503:2574   */\n      tag_125\n      jump\t// in\n    tag_124:\n        /* \"#utility.yul\":2496:2574   */\n      swap4\n      pop\n        /* \"#utility.yul\":2583:2635   */\n      tag_126\n        /* \"#utility.yul\":2628:2634   */\n      dup2\n        /* \"#utility.yul\":2623:2626   */\n      dup6\n        /* \"#utility.yul\":2616:2620   */\n      0x20\n        /* \"#utility.yul\":2609:2614   */\n      dup7\n        /* \"#utility.yul\":2605:2621   */\n      add\n        /* \"#utility.yul\":2583:2635   */\n      tag_127\n      jump\t// in\n    tag_126:\n        /* \"#utility.yul\":2660:2689   */\n      tag_128\n        /* \"#utility.yul\":2682:2688   */\n      dup2\n        /* \"#utility.yul\":2660:2689   */\n      tag_129\n      jump\t// in\n    tag_128:\n        /* \"#utility.yul\":2655:2658   */\n      dup5\n        /* \"#utility.yul\":2651:2690   */\n      add\n        /* \"#utility.yul\":2644:2690   */\n      swap2\n      pop\n        /* \"#utility.yul\":2424:2696   */\n      pop\n        /* \"#utility.yul\":2332:2696   */\n      swap3\n      swap2\n      pop\n      pop\n      jump\t// out\n        /* \"#utility.yul\":2702:2820   */\n    tag_130:\n        /* \"#utility.yul\":2789:2813   */\n      tag_132\n        /* \"#utility.yul\":2807:2812   */\n      dup2\n        /* \"#utility.yul\":2789:2813   */\n      tag_133\n      jump\t// in\n    tag_132:\n        /* \"#utility.yul\":2784:2787   */\n      dup3\n        /* \"#utility.yul\":2777:2814   */\n      mstore\n        /* \"#utility.yul\":2702:2820   */\n      pop\n      pop\n      jump\t// out\n        /* \"#utility.yul\":2826:2938   */\n    tag_134:\n        /* \"#utility.yul\":2909:2931   */\n      tag_136\n        /* \"#utility.yul\":2925:2930   */\n      dup2\n        /* \"#utility.yul\":2909:2931   */\n      tag_137\n      jump\t// in\n    tag_136:\n        /* \"#utility.yul\":2904:2907   */\n      dup3\n        /* \"#utility.yul\":2897:2932   */\n      mstore\n        /* \"#utility.yul\":2826:2938   */\n      pop\n      pop\n      jump\t// out\n        /* \"#utility.yul\":2944:3154   */\n    tag_22:\n        /* \"#utility.yul\":3031:3035   */\n      0x00\n        /* \"#utility.yul\":3069:3071   */\n      0x20\n        /* \"#utility.yul\":3058:3067   */\n      dup3\n        /* \"#utility.yul\":3054:3072   */\n      add\n        /* \"#utility.yul\":3046:3072   */\n      swap1\n      pop\n        /* \"#utility.yul\":3082:3147   */\n      tag_139\n        /* \"#utility.yul\":3144:3145   */\n      0x00\n        /* \"#utility.yul\":3133:3142   */\n      dup4\n        /* \"#utility.yul\":3129:3146   */\n      add\n        /* \"#utility.yul\":3120:3126   */\n      dup5\n        /* \"#utility.yul\":3082:3147   */\n      tag_116\n      jump\t// in\n    tag_139:\n        /* \"#utility.yul\":2944:3154   */\n      swap3\n      swap2\n      pop\n      pop\n      jump\t// out\n        /* \"#utility.yul\":3160:3473   */\n    tag_16:\n        /* \"#utility.yul\":3273:3277   */\n      0x00\n        /* \"#utility.yul\":3311:3313   */\n      0x20\n        /* \"#utility.yul\":3300:3309   */\n      dup3\n        /* \"#utility.yul\":3296:3314   */\n      add\n        /* \"#utility.yul\":3288:3314   */\n      swap1\n      pop\n        /* \"#utility.yul\":3360:3369   */\n      dup2\n        /* \"#utility.yul\":3354:3358   */\n      dup2\n        /* \"#utility.yul\":3350:3370   */\n      sub\n        /* \"#utility.yul\":3346:3347   */\n      0x00\n        /* \"#utility.yul\":3335:3344   */\n      dup4\n        /* \"#utility.yul\":3331:3348   */\n      add\n        /* \"#utility.yul\":3324:3371   */\n      mstore\n        /* \"#utility.yul\":3388:3466   */\n      tag_141\n        /* \"#utility.yul\":3461:3465   */\n      dup2\n        /* \"#utility.yul\":3452:3458   */\n      dup5\n        /* \"#utility.yul\":3388:3466   */\n      tag_120\n      jump\t// in\n    tag_141:\n        /* \"#utility.yul\":3380:3466   */\n      swap1\n      pop\n        /* \"#utility.yul\":3160:3473   */\n      swap3\n      swap2\n      pop\n      pop\n      jump\t// out\n        /* \"#utility.yul\":3479:3701   */\n    tag_26:\n        /* \"#utility.yul\":3572:3576   */\n      0x00\n        /* \"#utility.yul\":3610:3612   */\n      0x20\n        /* \"#utility.yul\":3599:3608   */\n      dup3\n        /* \"#utility.yul\":3595:3613   */\n      add\n        /* \"#utility.yul\":3587:3613   */\n      swap1\n      pop\n        /* \"#utility.yul\":3623:3694   */\n      tag_143\n        /* \"#utility.yul\":3691:3692   */\n      0x00\n        /* \"#utility.yul\":3680:3689   */\n      dup4\n        /* \"#utility.yul\":3676:3693   */\n      add\n        /* \"#utility.yul\":3667:3673   */\n      dup5\n        /* \"#utility.yul\":3623:3694   */\n      tag_130\n      jump\t// in\n    tag_143:\n        /* \"#utility.yul\":3479:3701   */\n      swap3\n      swap2\n      pop\n      pop\n      jump\t// out\n        /* \"#utility.yul\":3707:3921   */\n    tag_35:\n        /* \"#utility.yul\":3796:3800   */\n      0x00\n        /* \"#utility.yul\":3834:3836   */\n      0x20\n        /* \"#utility.yul\":3823:3832   */\n      dup3\n        /* \"#utility.yul\":3819:3837   */\n      add\n        /* \"#utility.yul\":3811:3837   */\n      swap1\n      pop\n        /* \"#utility.yul\":3847:3914   */\n      tag_145\n        /* \"#utility.yul\":3911:3912   */\n      0x00\n        /* \"#utility.yul\":3900:3909   */\n      dup4\n        /* \"#utility.yul\":3896:3913   */\n      add\n        /* \"#utility.yul\":3887:3893   */\n      dup5\n        /* \"#utility.yul\":3847:3914   */\n      tag_134\n      jump\t// in\n    tag_145:\n        /* \"#utility.yul\":3707:3921   */\n      swap3\n      swap2\n      pop\n      pop\n      jump\t// out\n        /* \"#utility.yul\":4008:4107   */\n    tag_123:\n        /* \"#utility.yul\":4060:4066   */\n      0x00\n        /* \"#utility.yul\":4094:4099   */\n      dup2\n        /* \"#utility.yul\":4088:4100   */\n      mload\n        /* \"#utility.yul\":4078:4100   */\n      swap1\n      pop\n        /* \"#utility.yul\":4008:4107   */\n      swap2\n      swap1\n      pop\n      jump\t// out\n        /* \"#utility.yul\":4113:4282   */\n    tag_125:\n        /* \"#utility.yul\":4197:4208   */\n      0x00\n        /* \"#utility.yul\":4231:4237   */\n      dup3\n        /* \"#utility.yul\":4226:4229   */\n      dup3\n        /* \"#utility.yul\":4219:4238   */\n      mstore\n        /* \"#utility.yul\":4271:4275   */\n      0x20\n        /* \"#utility.yul\":4266:4269   */\n      dup3\n        /* \"#utility.yul\":4262:4276   */\n      add\n        /* \"#utility.yul\":4247:4276   */\n      swap1\n      pop\n        /* \"#utility.yul\":4113:4282   */\n      swap3\n      swap2\n      pop\n      pop\n      jump\t// out\n        /* \"#utility.yul\":4288:4593   */\n    tag_70:\n        /* \"#utility.yul\":4328:4331   */\n      0x00\n        /* \"#utility.yul\":4347:4367   */\n      tag_151\n        /* \"#utility.yul\":4365:4366   */\n      dup3\n        /* \"#utility.yul\":4347:4367   */\n      tag_133\n      jump\t// in\n    tag_151:\n        /* \"#utility.yul\":4342:4367   */\n      swap2\n      pop\n        /* \"#utility.yul\":4381:4401   */\n      tag_152\n        /* \"#utility.yul\":4399:4400   */\n      dup4\n        /* \"#utility.yul\":4381:4401   */\n      tag_133\n      jump\t// in\n    tag_152:\n        /* \"#utility.yul\":4376:4401   */\n      swap3\n      pop\n        /* \"#utility.yul\":4535:4536   */\n      dup3\n        /* \"#utility.yul\":4467:4533   */\n      0xffffffffffffffffffffffffffffffffffffffffffffffffffffffffffffffff\n        /* \"#utility.yul\":4463:4537   */\n      sub\n        /* \"#utility.yul\":4460:4461   */\n      dup3\n        /* \"#utility.yul\":4457:4538   */\n      gt\n        /* \"#utility.yul\":4454:4561   */\n      iszero\n      tag_153\n      jumpi\n        /* \"#utility.yul\":4541:4559   */\n      tag_154\n      tag_155\n      jump\t// in\n    tag_154:\n        /* \"#utility.yul\":4454:4561   */\n    tag_153:\n        /* \"#utility.yul\":4585:4586   */\n      dup3\n        /* \"#utility.yul\":4582:4583   */\n      dup3\n        /* \"#utility.yul\":4578:4587   */\n      add\n        /* \"#utility.yul\":4571:4587   */\n      swap1\n      pop\n        /* \"#utility.yul\":4288:4593   */\n      swap3\n      swap2\n      pop\n      pop\n      jump\t// out\n        /* \"#utility.yul\":4599:4790   */\n    tag_67:\n        /* \"#utility.yul\":4639:4643   */\n      0x00\n        /* \"#utility.yul\":4659:4679   */\n      tag_157\n        /* \"#utility.yul\":4677:4678   */\n      dup3\n        /* \"#utility.yul\":4659:4679   */\n      tag_133\n      jump\t// in\n    tag_157:\n        /* \"#utility.yul\":4654:4679   */\n      swap2\n      pop\n        /* \"#utility.yul\":4693:4713   */\n      tag_158\n        /* \"#utility.yul\":4711:4712   */\n      dup4\n        /* \"#utility.yul\":4693:4713   */\n      tag_133\n      jump\t// in\n    tag_158:\n        /* \"#utility.yul\":4688:4713   */\n      swap3\n      pop\n        /* \"#utility.yul\":4732:4733   */\n      dup3\n        /* \"#utility.yul\":4729:4730   */\n      dup3\n        /* \"#utility.yul\":4726:4734   */\n      lt\n        /* \"#utility.yul\":4723:4757   */\n      iszero\n      tag_159\n      jumpi\n        /* \"#utility.yul\":4737:4755   */\n      tag_160\n      tag_155\n      jump\t// in\n    tag_160:\n        /* \"#utility.yul\":4723:4757   */\n    tag_159:\n        /* \"#utility.yul\":4782:4783   */\n      dup3\n        /* \"#utility.yul\":4779:4780   */\n      dup3\n        /* \"#utility.yul\":4775:4784   */\n      sub\n        /* \"#utility.yul\":4767:4784   */\n      swap1\n      pop\n        /* \"#utility.yul\":4599:4790   */\n      swap3\n      swap2\n      pop\n      pop\n      jump\t// out\n        /* \"#utility.yul\":4796:4892   */\n    tag_161:\n        /* \"#utility.yul\":4833:4840   */\n      0x00\n        /* \"#utility.yul\":4862:4886   */\n      tag_163\n        /* \"#utility.yul\":4880:4885   */\n      dup3\n        /* \"#utility.yul\":4862:4886   */\n      tag_164\n      jump\t// in\n    tag_163:\n        /* \"#utility.yul\":4851:4886   */\n      swap1\n      pop\n        /* \"#utility.yul\":4796:4892   */\n      swap2\n      swap1\n      pop\n      jump\t// out\n        /* \"#utility.yul\":4898:4988   */\n    tag_119:\n        /* \"#utility.yul\":4932:4939   */\n      0x00\n        /* \"#utility.yul\":4975:4980   */\n      dup2\n        /* \"#utility.yul\":4968:4981   */\n      iszero\n        /* \"#utility.yul\":4961:4982   */\n      iszero\n        /* \"#utility.yul\":4950:4982   */\n      swap1\n      pop\n        /* \"#utility.yul\":4898:4988   */\n      swap2\n      swap1\n      pop\n      jump\t// out\n        /* \"#utility.yul\":4994:5120   */\n    tag_164:\n        /* \"#utility.yul\":5031:5038   */\n      0x00\n        /* \"#utility.yul\":5071:5113   */\n      0xffffffffffffffffffffffffffffffffffffffff\n        /* \"#utility.yul\":5064:5069   */\n      dup3\n        /* \"#utility.yul\":5060:5114   */\n      and\n        /* \"#utility.yul\":5049:5114   */\n      swap1\n      pop\n        /* \"#utility.yul\":4994:5120   */\n      swap2\n      swap1\n      pop\n      jump\t// out\n        /* \"#utility.yul\":5126:5203   */\n    tag_133:\n        /* \"#utility.yul\":5163:5170   */\n      0x00\n        /* \"#utility.yul\":5192:5197   */\n      dup2\n        /* \"#utility.yul\":5181:5197   */\n      swap1\n      pop\n        /* \"#utility.yul\":5126:5203   */\n      swap2\n      swap1\n      pop\n      jump\t// out\n        /* \"#utility.yul\":5209:5295   */\n    tag_137:\n        /* \"#utility.yul\":5244:5251   */\n      0x00\n        /* \"#utility.yul\":5284:5288   */\n      0xff\n        /* \"#utility.yul\":5277:5282   */\n      dup3\n        /* \"#utility.yul\":5273:5289   */\n      and\n        /* \"#utility.yul\":5262:5289   */\n      swap1\n      pop\n        /* \"#utility.yul\":5209:5295   */\n      swap2\n      swap1\n      pop\n      jump\t// out\n        /* \"#utility.yul\":5301:5608   */\n    tag_127:\n        /* \"#utility.yul\":5369:5370   */\n      0x00\n        /* \"#utility.yul\":5379:5492   */\n    tag_170:\n        /* \"#utility.yul\":5393:5399   */\n      dup4\n        /* \"#utility.yul\":5390:5391   */\n      dup2\n        /* \"#utility.yul\":5387:5400   */\n      lt\n        /* \"#utility.yul\":5379:5492   */\n      iszero\n      tag_172\n      jumpi\n        /* \"#utility.yul\":5478:5479   */\n      dup1\n        /* \"#utility.yul\":5473:5476   */\n      dup3\n        /* \"#utility.yul\":5469:5480   */\n      add\n        /* \"#utility.yul\":5463:5481   */\n      mload\n        /* \"#utility.yul\":5459:5460   */\n      dup2\n        /* \"#utility.yul\":5454:5457   */\n      dup5\n        /* \"#utility.yul\":5450:5461   */\n      add\n        /* \"#utility.yul\":5443:5482   */\n      mstore\n        /* \"#utility.yul\":5415:5417   */\n      0x20\n        /* \"#utility.yul\":5412:5413   */\n      dup2\n        /* \"#utility.yul\":5408:5418   */\n      add\n        /* \"#utility.yul\":5403:5418   */\n      swap1\n      pop\n        /* \"#utility.yul\":5379:5492   */\n      jump(tag_170)\n    tag_172:\n        /* \"#utility.yul\":5510:5516   */\n      dup4\n        /* \"#utility.yul\":5507:5508   */\n      dup2\n        /* \"#utility.yul\":5504:5517   */\n      gt\n        /* \"#utility.yul\":5501:5602   */\n      iszero\n      tag_173\n      jumpi\n        /* \"#utility.yul\":5590:5591   */\n      0x00\n        /* \"#utility.yul\":5581:5587   */\n      dup5\n        /* \"#utility.yul\":5576:5579   */\n      dup5\n        /* \"#utility.yul\":5572:5588   */\n      add\n        /* \"#utility.yul\":5565:5592   */\n      mstore\n        /* \"#utility.yul\":5501:5602   */\n    tag_173:\n        /* \"#utility.yul\":5350:5608   */\n      pop\n        /* \"#utility.yul\":5301:5608   */\n      pop\n      pop\n      pop\n      jump\t// out\n        /* \"#utility.yul\":5614:5934   */\n    tag_55:\n        /* \"#utility.yul\":5658:5664   */\n      0x00\n        /* \"#utility.yul\":5695:5696   */\n      0x02\n        /* \"#utility.yul\":5689:5693   */\n      dup3\n        /* \"#utility.yul\":5685:5697   */\n      div\n        /* \"#utility.yul\":5675:5697   */\n      swap1\n      pop\n        /* \"#utility.yul\":5742:5743   */\n      0x01\n        /* \"#utility.yul\":5736:5740   */\n      dup3\n        /* \"#utility.yul\":5732:5744   */\n      and\n        /* \"#utility.yul\":5763:5781   */\n      dup1\n        /* \"#utility.yul\":5753:5834   */\n      tag_175\n      jumpi\n        /* \"#utility.yul\":5819:5823   */\n      0x7f\n        /* \"#utility.yul\":5811:5817   */\n      dup3\n        /* \"#utility.yul\":5807:5824   */\n      and\n        /* \"#utility.yul\":5797:5824   */\n      swap2\n      pop\n        /* \"#utility.yul\":5753:5834   */\n    tag_175:\n        /* \"#utility.yul\":5881:5883   */\n      0x20\n        /* \"#utility.yul\":5873:5879   */\n      dup3\n        /* \"#utility.yul\":5870:5884   */\n      lt\n        /* \"#utility.yul\":5850:5868   */\n      dup2\n        /* \"#utility.yul\":5847:5885   */\n      eq\n        /* \"#utility.yul\":5844:5928   */\n      iszero\n      tag_176\n      jumpi\n        /* \"#utility.yul\":5900:5918   */\n      tag_177\n      tag_178\n      jump\t// in\n    tag_177:\n        /* \"#utility.yul\":5844:5928   */\n    tag_176:\n        /* \"#utility.yul\":5665:5934   */\n      pop\n        /* \"#utility.yul\":5614:5934   */\n      swap2\n      swap1\n      pop\n      jump\t// out\n        /* \"#utility.yul\":5940:6120   */\n    tag_155:\n        /* \"#utility.yul\":5988:6065   */\n      0x4e487b7100000000000000000000000000000000000000000000000000000000\n        /* \"#utility.yul\":5985:5986   */\n      0x00\n        /* \"#utility.yul\":5978:6066   */\n      mstore\n        /* \"#utility.yul\":6085:6089   */\n      0x11\n        /* \"#utility.yul\":6082:6083   */\n      0x04\n        /* \"#utility.yul\":6075:6090   */\n      mstore\n        /* \"#utility.yul\":6109:6113   */\n      0x24\n        /* \"#utility.yul\":6106:6107   */\n      0x00\n        /* \"#utility.yul\":6099:6114   */\n      revert\n        /* \"#utility.yul\":6126:6306   */\n    tag_178:\n        /* \"#utility.yul\":6174:6251   */\n      0x4e487b7100000000000000000000000000000000000000000000000000000000\n        /* \"#utility.yul\":6171:6172   */\n      0x00\n        /* \"#utility.yul\":6164:6252   */\n      mstore\n        /* \"#utility.yul\":6271:6275   */\n      0x22\n        /* \"#utility.yul\":6268:6269   */\n      0x04\n        /* \"#utility.yul\":6261:6276   */\n      mstore\n        /* \"#utility.yul\":6295:6299   */\n      0x24\n        /* \"#utility.yul\":6292:6293   */\n      0x00\n        /* \"#utility.yul\":6285:6300   */\n      revert\n        /* \"#utility.yul\":6435:6552   */\n    tag_98:\n        /* \"#utility.yul\":6544:6545   */\n      0x00\n        /* \"#utility.yul\":6541:6542   */\n      dup1\n        /* \"#utility.yul\":6534:6546   */\n      revert\n        /* \"#utility.yul\":6558:6660   */\n    tag_129:\n        /* \"#utility.yul\":6599:6605   */\n      0x00\n        /* \"#utility.yul\":6650:6652   */\n      0x1f\n        /* \"#utility.yul\":6646:6653   */\n      not\n        /* \"#utility.yul\":6641:6643   */\n      0x1f\n        /* \"#utility.yul\":6634:6639   */\n      dup4\n        /* \"#utility.yul\":6630:6644   */\n      add\n        /* \"#utility.yul\":6626:6654   */\n      and\n        /* \"#utility.yul\":6616:6654   */\n      swap1\n      pop\n        /* \"#utility.yul\":6558:6660   */\n      swap2\n      swap1\n      pop\n      jump\t// out\n        /* \"#utility.yul\":6666:6788   */\n    tag_90:\n        /* \"#utility.yul\":6739:6763   */\n      tag_186\n        /* \"#utility.yul\":6757:6762   */\n      dup2\n        /* \"#utility.yul\":6739:6763   */\n      tag_161\n      jump\t// in\n    tag_186:\n        /* \"#utility.yul\":6732:6737   */\n      dup2\n        /* \"#utility.yul\":6729:6764   */\n      eq\n        /* \"#utility.yul\":6719:6782   */\n      tag_187\n      jumpi\n        /* \"#utility.yul\":6778:6779   */\n      0x00\n        /* \"#utility.yul\":6775:6776   */\n      dup1\n        /* \"#utility.yul\":6768:6780   */\n      revert\n        /* \"#utility.yul\":6719:6782   */\n    tag_187:\n        /* \"#utility.yul\":6666:6788   */\n      pop\n      jump\t// out\n        /* \"#utility.yul\":6794:6916   */\n    tag_94:\n        /* \"#utility.yul\":6867:6891   */\n      tag_189\n        /* \"#utility.yul\":6885:6890   */\n      dup2\n        /* \"#utility.yul\":6867:6891   */\n      tag_133\n      jump\t// in\n    tag_189:\n        /* \"#utility.yul\":6860:6865   */\n      dup2\n        /* \"#utility.yul\":6857:6892   */\n      eq\n        /* \"#utility.yul\":6847:6910   */\n      tag_190\n      jumpi\n        /* \"#utility.yul\":6906:6907   */\n      0x00\n        /* \"#utility.yul\":6903:6904   */\n      dup1\n        /* \"#utility.yul\":6896:6908   */\n      revert\n        /* \"#utility.yul\":6847:6910   */\n    tag_190:\n        /* \"#utility.yul\":6794:6916   */\n      pop\n      jump\t// out\n\n    auxdata: 0xa26469706673582212209d4baf1005dc651bd882615f4c648eec0748d449c221cc1b008526b530a7a72564736f6c63430008070033\n}\n",
				"bytecode": {
					"linkReferences": {},
					"object": "60806040526040518060400160405280600881526020017f4137333842464445000000000000000000000000000000000000000000000000815250600090805190602001906200005192919062000143565b506040518060400160405280600881526020017f4532434131454641000000000000000000000000000000000000000000000000815250600190805190602001906200009f92919062000143565b506000600260006101000a81548160ff021916908360ff160217905550348015620000c957600080fd5b5060405162001160380380620011608339818101604052810190620000ef91906200020a565b80600581905550600554600360003373ffffffffffffffffffffffffffffffffffffffff1673ffffffffffffffffffffffffffffffffffffffff1681526020019081526020016000208190555050620002ca565b828054620001519062000246565b90600052602060002090601f016020900481019282620001755760008555620001c1565b82601f106200019057805160ff1916838001178555620001c1565b82800160010185558215620001c1579182015b82811115620001c0578251825591602001919060010190620001a3565b5b509050620001d09190620001d4565b5090565b5b80821115620001ef576000816000905550600101620001d5565b5090565b6000815190506200020481620002b0565b92915050565b600060208284031215620002235762000222620002ab565b5b60006200023384828501620001f3565b91505092915050565b6000819050919050565b600060028204905060018216806200025f57607f821691505b602082108114156200027657620002756200027c565b5b50919050565b7f4e487b7100000000000000000000000000000000000000000000000000000000600052602260045260246000fd5b600080fd5b620002bb816200023c565b8114620002c757600080fd5b50565b610e8680620002da6000396000f3fe608060405234801561001057600080fd5b50600436106100935760003560e01c8063313ce56711610066578063313ce5671461013457806370a082311461015257806395d89b4114610182578063a9059cbb146101a0578063dd62ed3e146101d057610093565b806306fdde0314610098578063095ea7b3146100b657806318160ddd146100e657806323b872dd14610104575b600080fd5b6100a0610200565b6040516100ad9190610bf6565b60405180910390f35b6100d060048036038101906100cb9190610b35565b610292565b6040516100dd9190610bdb565b60405180910390f35b6100ee610384565b6040516100fb9190610c18565b60405180910390f35b61011e60048036038101906101199190610ae2565b61038e565b60405161012b9190610bdb565b60405180910390f35b61013c6106f9565b6040516101499190610c33565b60405180910390f35b61016c60048036038101906101679190610a75565b610710565b6040516101799190610c18565b60405180910390f35b61018a610759565b6040516101979190610bf6565b60405180910390f35b6101ba60048036038101906101b59190610b35565b6107eb565b6040516101c79190610bdb565b60405180910390f35b6101ea60048036038101906101e59190610aa2565b6109c4565b6040516101f79190610c18565b60405180910390f35b60606000805461020f90610d7c565b80601f016020809104026020016040519081016040528092919081815260200182805461023b90610d7c565b80156102885780601f1061025d57610100808354040283529160200191610288565b820191906000526020600020905b81548152906001019060200180831161026b57829003601f168201915b5050505050905090565b600081600460003373ffffffffffffffffffffffffffffffffffffffff1673ffffffffffffffffffffffffffffffffffffffff16815260200190815260200160002060008573ffffffffffffffffffffffffffffffffffffffff1673ffffffffffffffffffffffffffffffffffffffff168152602001908152602001600020819055508273ffffffffffffffffffffffffffffffffffffffff163373ffffffffffffffffffffffffffffffffffffffff167f8c5be1e5ebec7d5bd14f71427d1e84f3dd0314c0f7b2291e5b200ac8c7c3b925846040516103729190610c18565b60405180910390a36001905092915050565b6000600554905090565b6000600360008573ffffffffffffffffffffffffffffffffffffffff1673ffffffffffffffffffffffffffffffffffffffff168152602001908152602001600020548211156103dc57600080fd5b600460008573ffffffffffffffffffffffffffffffffffffffff1673ffffffffffffffffffffffffffffffffffffffff16815260200190815260200160002060003373ffffffffffffffffffffffffffffffffffffffff1673ffffffffffffffffffffffffffffffffffffffff1681526020019081526020016000205482111561046557600080fd5b81600360008673ffffffffffffffffffffffffffffffffffffffff1673ffffffffffffffffffffffffffffffffffffffff168152602001908152602001600020546104b09190610cc0565b600360008673ffffffffffffffffffffffffffffffffffffffff1673ffffffffffffffffffffffffffffffffffffffff1681526020019081526020016000208190555081600460008673ffffffffffffffffffffffffffffffffffffffff1673ffffffffffffffffffffffffffffffffffffffff16815260200190815260200160002060003373ffffffffffffffffffffffffffffffffffffffff1673ffffffffffffffffffffffffffffffffffffffff1681526020019081526020016000205461057b9190610cc0565b600460008673ffffffffffffffffffffffffffffffffffffffff1673ffffffffffffffffffffffffffffffffffffffff16815260200190815260200160002060003373ffffffffffffffffffffffffffffffffffffffff1673ffffffffffffffffffffffffffffffffffffffff1681526020019081526020016000208190555081600360008573ffffffffffffffffffffffffffffffffffffffff1673ffffffffffffffffffffffffffffffffffffffff168152602001908152602001600020546106469190610c6a565b600360008573ffffffffffffffffffffffffffffffffffffffff1673ffffffffffffffffffffffffffffffffffffffff168152602001908152602001600020819055508273ffffffffffffffffffffffffffffffffffffffff168473ffffffffffffffffffffffffffffffffffffffff167fddf252ad1be2c89b69c2b068fc378daa952ba7f163c4a11628f55a4df523b3ef846040516106e69190610c18565b60405180910390a3600190509392505050565b6000600260009054906101000a900460ff16905090565b6000600360008373ffffffffffffffffffffffffffffffffffffffff1673ffffffffffffffffffffffffffffffffffffffff168152602001908152602001600020549050919050565b60606001805461076890610d7c565b80601f016020809104026020016040519081016040528092919081815260200182805461079490610d7c565b80156107e15780601f106107b6576101008083540402835291602001916107e1565b820191906000526020600020905b8154815290600101906020018083116107c457829003601f168201915b5050505050905090565b6000600360003373ffffffffffffffffffffffffffffffffffffffff1673ffffffffffffffffffffffffffffffffffffffff1681526020019081526020016000205482111561083957600080fd5b81600360003373ffffffffffffffffffffffffffffffffffffffff1673ffffffffffffffffffffffffffffffffffffffff168152602001908152602001600020546108849190610cc0565b600360003373ffffffffffffffffffffffffffffffffffffffff1673ffffffffffffffffffffffffffffffffffffffff1681526020019081526020016000208190555081600360008573ffffffffffffffffffffffffffffffffffffffff1673ffffffffffffffffffffffffffffffffffffffff168152602001908152602001600020546109129190610c6a565b600360008573ffffffffffffffffffffffffffffffffffffffff1673ffffffffffffffffffffffffffffffffffffffff168152602001908152602001600020819055508273ffffffffffffffffffffffffffffffffffffffff163373ffffffffffffffffffffffffffffffffffffffff167fddf252ad1be2c89b69c2b068fc378daa952ba7f163c4a11628f55a4df523b3ef846040516109b29190610c18565b60405180910390a36001905092915050565b6000600460008473ffffffffffffffffffffffffffffffffffffffff1673ffffffffffffffffffffffffffffffffffffffff16815260200190815260200160002060008373ffffffffffffffffffffffffffffffffffffffff1673ffffffffffffffffffffffffffffffffffffffff16815260200190815260200160002054905092915050565b600081359050610a5a81610e22565b92915050565b600081359050610a6f81610e39565b92915050565b600060208284031215610a8b57610a8a610e0c565b5b6000610a9984828501610a4b565b91505092915050565b60008060408385031215610ab957610ab8610e0c565b5b6000610ac785828601610a4b565b9250506020610ad885828601610a4b565b9150509250929050565b600080600060608486031215610afb57610afa610e0c565b5b6000610b0986828701610a4b565b9350506020610b1a86828701610a4b565b9250506040610b2b86828701610a60565b9150509250925092565b60008060408385031215610b4c57610b4b610e0c565b5b6000610b5a85828601610a4b565b9250506020610b6b85828601610a60565b9150509250929050565b610b7e81610d06565b82525050565b6000610b8f82610c4e565b610b998185610c59565b9350610ba9818560208601610d49565b610bb281610e11565b840191505092915050565b610bc681610d32565b82525050565b610bd581610d3c565b82525050565b6000602082019050610bf06000830184610b75565b92915050565b60006020820190508181036000830152610c108184610b84565b905092915050565b6000602082019050610c2d6000830184610bbd565b92915050565b6000602082019050610c486000830184610bcc565b92915050565b600081519050919050565b600082825260208201905092915050565b6000610c7582610d32565b9150610c8083610d32565b9250827fffffffffffffffffffffffffffffffffffffffffffffffffffffffffffffffff03821115610cb557610cb4610dae565b5b828201905092915050565b6000610ccb82610d32565b9150610cd683610d32565b925082821015610ce957610ce8610dae565b5b828203905092915050565b6000610cff82610d12565b9050919050565b60008115159050919050565b600073ffffffffffffffffffffffffffffffffffffffff82169050919050565b6000819050919050565b600060ff82169050919050565b60005b83811015610d67578082015181840152602081019050610d4c565b83811115610d76576000848401525b50505050565b60006002820490506001821680610d9457607f821691505b60208210811415610da857610da7610ddd565b5b50919050565b7f4e487b7100000000000000000000000000000000000000000000000000000000600052601160045260246000fd5b7f4e487b7100000000000000000000000000000000000000000000000000000000600052602260045260246000fd5b600080fd5b6000601f19601f8301169050919050565b610e2b81610cf4565b8114610e3657600080fd5b50565b610e4281610d32565b8114610e4d57600080fd5b5056fea26469706673582212209d4baf1005dc651bd882615f4c648eec0748d449c221cc1b008526b530a7a72564736f6c63430008070033",
					"opcodes": "PUSH1 0x80 PUSH1 0x40 MSTORE PUSH1 0x40 MLOAD DUP1 PUSH1 0x40 ADD PUSH1 0x40 MSTORE DUP1 PUSH1 0x8 DUP2 MSTORE PUSH1 0x20 ADD PUSH32 0x4137333842464445000000000000000000000000000000000000000000000000 DUP2 MSTORE POP PUSH1 0x0 SWAP1 DUP1 MLOAD SWAP1 PUSH1 0x20 ADD SWAP1 PUSH3 0x51 SWAP3 SWAP2 SWAP1 PUSH3 0x143 JUMP JUMPDEST POP PUSH1 0x40 MLOAD DUP1 PUSH1 0x40 ADD PUSH1 0x40 MSTORE DUP1 PUSH1 0x8 DUP2 MSTORE PUSH1 0x20 ADD PUSH32 0x4532434131454641000000000000000000000000000000000000000000000000 DUP2 MSTORE POP PUSH1 0x1 SWAP1 DUP1 MLOAD SWAP1 PUSH1 0x20 ADD SWAP1 PUSH3 0x9F SWAP3 SWAP2 SWAP1 PUSH3 0x143 JUMP JUMPDEST POP PUSH1 0x0 PUSH1 0x2 PUSH1 0x0 PUSH2 0x100 EXP DUP2 SLOAD DUP2 PUSH1 0xFF MUL NOT AND SWAP1 DUP4 PUSH1 0xFF AND MUL OR SWAP1 SSTORE POP CALLVALUE DUP1 ISZERO PUSH3 0xC9 JUMPI PUSH1 0x0 DUP1 REVERT JUMPDEST POP PUSH1 0x40 MLOAD PUSH3 0x1160 CODESIZE SUB DUP1 PUSH3 0x1160 DUP4 CODECOPY DUP2 DUP2 ADD PUSH1 0x40 MSTORE DUP2 ADD SWAP1 PUSH3 0xEF SWAP2 SWAP1 PUSH3 0x20A JUMP JUMPDEST DUP1 PUSH1 0x5 DUP2 SWAP1 SSTORE POP PUSH1 0x5 SLOAD PUSH1 0x3 PUSH1 0x0 CALLER PUSH20 0xFFFFFFFFFFFFFFFFFFFFFFFFFFFFFFFFFFFFFFFF AND PUSH20 0xFFFFFFFFFFFFFFFFFFFFFFFFFFFFFFFFFFFFFFFF AND DUP2 MSTORE PUSH1 0x20 ADD SWAP1 DUP2 MSTORE PUSH1 0x20 ADD PUSH1 0x0 KECCAK256 DUP2 SWAP1 SSTORE POP POP PUSH3 0x2CA JUMP JUMPDEST DUP3 DUP1 SLOAD PUSH3 0x151 SWAP1 PUSH3 0x246 JUMP JUMPDEST SWAP1 PUSH1 0x0 MSTORE PUSH1 0x20 PUSH1 0x0 KECCAK256 SWAP1 PUSH1 0x1F ADD PUSH1 0x20 SWAP1 DIV DUP2 ADD SWAP3 DUP3 PUSH3 0x175 JUMPI PUSH1 0x0 DUP6 SSTORE PUSH3 0x1C1 JUMP JUMPDEST DUP3 PUSH1 0x1F LT PUSH3 0x190 JUMPI DUP1 MLOAD PUSH1 0xFF NOT AND DUP4 DUP1 ADD OR DUP6 SSTORE PUSH3 0x1C1 JUMP JUMPDEST DUP3 DUP1 ADD PUSH1 0x1 ADD DUP6 SSTORE DUP3 ISZERO PUSH3 0x1C1 JUMPI SWAP2 DUP3 ADD JUMPDEST DUP3 DUP2 GT ISZERO PUSH3 0x1C0 JUMPI DUP3 MLOAD DUP3 SSTORE SWAP2 PUSH1 0x20 ADD SWAP2 SWAP1 PUSH1 0x1 ADD SWAP1 PUSH3 0x1A3 JUMP JUMPDEST JUMPDEST POP SWAP1 POP PUSH3 0x1D0 SWAP2 SWAP1 PUSH3 0x1D4 JUMP JUMPDEST POP SWAP1 JUMP JUMPDEST JUMPDEST DUP1 DUP3 GT ISZERO PUSH3 0x1EF JUMPI PUSH1 0x0 DUP2 PUSH1 0x0 SWAP1 SSTORE POP PUSH1 0x1 ADD PUSH3 0x1D5 JUMP JUMPDEST POP SWAP1 JUMP JUMPDEST PUSH1 0x0 DUP2 MLOAD SWAP1 POP PUSH3 0x204 DUP2 PUSH3 0x2B0 JUMP JUMPDEST SWAP3 SWAP2 POP POP JUMP JUMPDEST PUSH1 0x0 PUSH1 0x20 DUP3 DUP5 SUB SLT ISZERO PUSH3 0x223 JUMPI PUSH3 0x222 PUSH3 0x2AB JUMP JUMPDEST JUMPDEST PUSH1 0x0 PUSH3 0x233 DUP5 DUP3 DUP6 ADD PUSH3 0x1F3 JUMP JUMPDEST SWAP2 POP POP SWAP3 SWAP2 POP POP JUMP JUMPDEST PUSH1 0x0 DUP2 SWAP1 POP SWAP2 SWAP1 POP JUMP JUMPDEST PUSH1 0x0 PUSH1 0x2 DUP3 DIV SWAP1 POP PUSH1 0x1 DUP3 AND DUP1 PUSH3 0x25F JUMPI PUSH1 0x7F DUP3 AND SWAP2 POP JUMPDEST PUSH1 0x20 DUP3 LT DUP2 EQ ISZERO PUSH3 0x276 JUMPI PUSH3 0x275 PUSH3 0x27C JUMP JUMPDEST JUMPDEST POP SWAP2 SWAP1 POP JUMP JUMPDEST PUSH32 0x4E487B7100000000000000000000000000000000000000000000000000000000 PUSH1 0x0 MSTORE PUSH1 0x22 PUSH1 0x4 MSTORE PUSH1 0x24 PUSH1 0x0 REVERT JUMPDEST PUSH1 0x0 DUP1 REVERT JUMPDEST PUSH3 0x2BB DUP2 PUSH3 0x23C JUMP JUMPDEST DUP2 EQ PUSH3 0x2C7 JUMPI PUSH1 0x0 DUP1 REVERT JUMPDEST POP JUMP JUMPDEST PUSH2 0xE86 DUP1 PUSH3 0x2DA PUSH1 0x0 CODECOPY PUSH1 0x0 RETURN INVALID PUSH1 0x80 PUSH1 0x40 MSTORE CALLVALUE DUP1 ISZERO PUSH2 0x10 JUMPI PUSH1 0x0 DUP1 REVERT JUMPDEST POP PUSH1 0x4 CALLDATASIZE LT PUSH2 0x93 JUMPI PUSH1 0x0 CALLDATALOAD PUSH1 0xE0 SHR DUP1 PUSH4 0x313CE567 GT PUSH2 0x66 JUMPI DUP1 PUSH4 0x313CE567 EQ PUSH2 0x134 JUMPI DUP1 PUSH4 0x70A08231 EQ PUSH2 0x152 JUMPI DUP1 PUSH4 0x95D89B41 EQ PUSH2 0x182 JUMPI DUP1 PUSH4 0xA9059CBB EQ PUSH2 0x1A0 JUMPI DUP1 PUSH4 0xDD62ED3E EQ PUSH2 0x1D0 JUMPI PUSH2 0x93 JUMP JUMPDEST DUP1 PUSH4 0x6FDDE03 EQ PUSH2 0x98 JUMPI DUP1 PUSH4 0x95EA7B3 EQ PUSH2 0xB6 JUMPI DUP1 PUSH4 0x18160DDD EQ PUSH2 0xE6 JUMPI DUP1 PUSH4 0x23B872DD EQ PUSH2 0x104 JUMPI JUMPDEST PUSH1 0x0 DUP1 REVERT JUMPDEST PUSH2 0xA0 PUSH2 0x200 JUMP JUMPDEST PUSH1 0x40 MLOAD PUSH2 0xAD SWAP2 SWAP1 PUSH2 0xBF6 JUMP JUMPDEST PUSH1 0x40 MLOAD DUP1 SWAP2 SUB SWAP1 RETURN JUMPDEST PUSH2 0xD0 PUSH1 0x4 DUP1 CALLDATASIZE SUB DUP2 ADD SWAP1 PUSH2 0xCB SWAP2 SWAP1 PUSH2 0xB35 JUMP JUMPDEST PUSH2 0x292 JUMP JUMPDEST PUSH1 0x40 MLOAD PUSH2 0xDD SWAP2 SWAP1 PUSH2 0xBDB JUMP JUMPDEST PUSH1 0x40 MLOAD DUP1 SWAP2 SUB SWAP1 RETURN JUMPDEST PUSH2 0xEE PUSH2 0x384 JUMP JUMPDEST PUSH1 0x40 MLOAD PUSH2 0xFB SWAP2 SWAP1 PUSH2 0xC18 JUMP JUMPDEST PUSH1 0x40 MLOAD DUP1 SWAP2 SUB SWAP1 RETURN JUMPDEST PUSH2 0x11E PUSH1 0x4 DUP1 CALLDATASIZE SUB DUP2 ADD SWAP1 PUSH2 0x119 SWAP2 SWAP1 PUSH2 0xAE2 JUMP JUMPDEST PUSH2 0x38E JUMP JUMPDEST PUSH1 0x40 MLOAD PUSH2 0x12B SWAP2 SWAP1 PUSH2 0xBDB JUMP JUMPDEST PUSH1 0x40 MLOAD DUP1 SWAP2 SUB SWAP1 RETURN JUMPDEST PUSH2 0x13C PUSH2 0x6F9 JUMP JUMPDEST PUSH1 0x40 MLOAD PUSH2 0x149 SWAP2 SWAP1 PUSH2 0xC33 JUMP JUMPDEST PUSH1 0x40 MLOAD DUP1 SWAP2 SUB SWAP1 RETURN JUMPDEST PUSH2 0x16C PUSH1 0x4 DUP1 CALLDATASIZE SUB DUP2 ADD SWAP1 PUSH2 0x167 SWAP2 SWAP1 PUSH2 0xA75 JUMP JUMPDEST PUSH2 0x710 JUMP JUMPDEST PUSH1 0x40 MLOAD PUSH2 0x179 SWAP2 SWAP1 PUSH2 0xC18 JUMP JUMPDEST PUSH1 0x40 MLOAD DUP1 SWAP2 SUB SWAP1 RETURN JUMPDEST PUSH2 0x18A PUSH2 0x759 JUMP JUMPDEST PUSH1 0x40 MLOAD PUSH2 0x197 SWAP2 SWAP1 PUSH2 0xBF6 JUMP JUMPDEST PUSH1 0x40 MLOAD DUP1 SWAP2 SUB SWAP1 RETURN JUMPDEST PUSH2 0x1BA PUSH1 0x4 DUP1 CALLDATASIZE SUB DUP2 ADD SWAP1 PUSH2 0x1B5 SWAP2 SWAP1 PUSH2 0xB35 JUMP JUMPDEST PUSH2 0x7EB JUMP JUMPDEST PUSH1 0x40 MLOAD PUSH2 0x1C7 SWAP2 SWAP1 PUSH2 0xBDB JUMP JUMPDEST PUSH1 0x40 MLOAD DUP1 SWAP2 SUB SWAP1 RETURN JUMPDEST PUSH2 0x1EA PUSH1 0x4 DUP1 CALLDATASIZE SUB DUP2 ADD SWAP1 PUSH2 0x1E5 SWAP2 SWAP1 PUSH2 0xAA2 JUMP JUMPDEST PUSH2 0x9C4 JUMP JUMPDEST PUSH1 0x40 MLOAD PUSH2 0x1F7 SWAP2 SWAP1 PUSH2 0xC18 JUMP JUMPDEST PUSH1 0x40 MLOAD DUP1 SWAP2 SUB SWAP1 RETURN JUMPDEST PUSH1 0x60 PUSH1 0x0 DUP1 SLOAD PUSH2 0x20F SWAP1 PUSH2 0xD7C JUMP JUMPDEST DUP1 PUSH1 0x1F ADD PUSH1 0x20 DUP1 SWAP2 DIV MUL PUSH1 0x20 ADD PUSH1 0x40 MLOAD SWAP1 DUP2 ADD PUSH1 0x40 MSTORE DUP1 SWAP3 SWAP2 SWAP1 DUP2 DUP2 MSTORE PUSH1 0x20 ADD DUP3 DUP1 SLOAD PUSH2 0x23B SWAP1 PUSH2 0xD7C JUMP JUMPDEST DUP1 ISZERO PUSH2 0x288 JUMPI DUP1 PUSH1 0x1F LT PUSH2 0x25D JUMPI PUSH2 0x100 DUP1 DUP4 SLOAD DIV MUL DUP4 MSTORE SWAP2 PUSH1 0x20 ADD SWAP2 PUSH2 0x288 JUMP JUMPDEST DUP3 ADD SWAP2 SWAP1 PUSH1 0x0 MSTORE PUSH1 0x20 PUSH1 0x0 KECCAK256 SWAP1 JUMPDEST DUP2 SLOAD DUP2 MSTORE SWAP1 PUSH1 0x1 ADD SWAP1 PUSH1 0x20 ADD DUP1 DUP4 GT PUSH2 0x26B JUMPI DUP3 SWAP1 SUB PUSH1 0x1F AND DUP3 ADD SWAP2 JUMPDEST POP POP POP POP POP SWAP1 POP SWAP1 JUMP JUMPDEST PUSH1 0x0 DUP2 PUSH1 0x4 PUSH1 0x0 CALLER PUSH20 0xFFFFFFFFFFFFFFFFFFFFFFFFFFFFFFFFFFFFFFFF AND PUSH20 0xFFFFFFFFFFFFFFFFFFFFFFFFFFFFFFFFFFFFFFFF AND DUP2 MSTORE PUSH1 0x20 ADD SWAP1 DUP2 MSTORE PUSH1 0x20 ADD PUSH1 0x0 KECCAK256 PUSH1 0x0 DUP6 PUSH20 0xFFFFFFFFFFFFFFFFFFFFFFFFFFFFFFFFFFFFFFFF AND PUSH20 0xFFFFFFFFFFFFFFFFFFFFFFFFFFFFFFFFFFFFFFFF AND DUP2 MSTORE PUSH1 0x20 ADD SWAP1 DUP2 MSTORE PUSH1 0x20 ADD PUSH1 0x0 KECCAK256 DUP2 SWAP1 SSTORE POP DUP3 PUSH20 0xFFFFFFFFFFFFFFFFFFFFFFFFFFFFFFFFFFFFFFFF AND CALLER PUSH20 0xFFFFFFFFFFFFFFFFFFFFFFFFFFFFFFFFFFFFFFFF AND PUSH32 0x8C5BE1E5EBEC7D5BD14F71427D1E84F3DD0314C0F7B2291E5B200AC8C7C3B925 DUP5 PUSH1 0x40 MLOAD PUSH2 0x372 SWAP2 SWAP1 PUSH2 0xC18 JUMP JUMPDEST PUSH1 0x40 MLOAD DUP1 SWAP2 SUB SWAP1 LOG3 PUSH1 0x1 SWAP1 POP SWAP3 SWAP2 POP POP JUMP JUMPDEST PUSH1 0x0 PUSH1 0x5 SLOAD SWAP1 POP SWAP1 JUMP JUMPDEST PUSH1 0x0 PUSH1 0x3 PUSH1 0x0 DUP6 PUSH20 0xFFFFFFFFFFFFFFFFFFFFFFFFFFFFFFFFFFFFFFFF AND PUSH20 0xFFFFFFFFFFFFFFFFFFFFFFFFFFFFFFFFFFFFFFFF AND DUP2 MSTORE PUSH1 0x20 ADD SWAP1 DUP2 MSTORE PUSH1 0x20 ADD PUSH1 0x0 KECCAK256 SLOAD DUP3 GT ISZERO PUSH2 0x3DC JUMPI PUSH1 0x0 DUP1 REVERT JUMPDEST PUSH1 0x4 PUSH1 0x0 DUP6 PUSH20 0xFFFFFFFFFFFFFFFFFFFFFFFFFFFFFFFFFFFFFFFF AND PUSH20 0xFFFFFFFFFFFFFFFFFFFFFFFFFFFFFFFFFFFFFFFF AND DUP2 MSTORE PUSH1 0x20 ADD SWAP1 DUP2 MSTORE PUSH1 0x20 ADD PUSH1 0x0 KECCAK256 PUSH1 0x0 CALLER PUSH20 0xFFFFFFFFFFFFFFFFFFFFFFFFFFFFFFFFFFFFFFFF AND PUSH20 0xFFFFFFFFFFFFFFFFFFFFFFFFFFFFFFFFFFFFFFFF AND DUP2 MSTORE PUSH1 0x20 ADD SWAP1 DUP2 MSTORE PUSH1 0x20 ADD PUSH1 0x0 KECCAK256 SLOAD DUP3 GT ISZERO PUSH2 0x465 JUMPI PUSH1 0x0 DUP1 REVERT JUMPDEST DUP2 PUSH1 0x3 PUSH1 0x0 DUP7 PUSH20 0xFFFFFFFFFFFFFFFFFFFFFFFFFFFFFFFFFFFFFFFF AND PUSH20 0xFFFFFFFFFFFFFFFFFFFFFFFFFFFFFFFFFFFFFFFF AND DUP2 MSTORE PUSH1 0x20 ADD SWAP1 DUP2 MSTORE PUSH1 0x20 ADD PUSH1 0x0 KECCAK256 SLOAD PUSH2 0x4B0 SWAP2 SWAP1 PUSH2 0xCC0 JUMP JUMPDEST PUSH1 0x3 PUSH1 0x0 DUP7 PUSH20 0xFFFFFFFFFFFFFFFFFFFFFFFFFFFFFFFFFFFFFFFF AND PUSH20 0xFFFFFFFFFFFFFFFFFFFFFFFFFFFFFFFFFFFFFFFF AND DUP2 MSTORE PUSH1 0x20 ADD SWAP1 DUP2 MSTORE PUSH1 0x20 ADD PUSH1 0x0 KECCAK256 DUP2 SWAP1 SSTORE POP DUP2 PUSH1 0x4 PUSH1 0x0 DUP7 PUSH20 0xFFFFFFFFFFFFFFFFFFFFFFFFFFFFFFFFFFFFFFFF AND PUSH20 0xFFFFFFFFFFFFFFFFFFFFFFFFFFFFFFFFFFFFFFFF AND DUP2 MSTORE PUSH1 0x20 ADD SWAP1 DUP2 MSTORE PUSH1 0x20 ADD PUSH1 0x0 KECCAK256 PUSH1 0x0 CALLER PUSH20 0xFFFFFFFFFFFFFFFFFFFFFFFFFFFFFFFFFFFFFFFF AND PUSH20 0xFFFFFFFFFFFFFFFFFFFFFFFFFFFFFFFFFFFFFFFF AND DUP2 MSTORE PUSH1 0x20 ADD SWAP1 DUP2 MSTORE PUSH1 0x20 ADD PUSH1 0x0 KECCAK256 SLOAD PUSH2 0x57B SWAP2 SWAP1 PUSH2 0xCC0 JUMP JUMPDEST PUSH1 0x4 PUSH1 0x0 DUP7 PUSH20 0xFFFFFFFFFFFFFFFFFFFFFFFFFFFFFFFFFFFFFFFF AND PUSH20 0xFFFFFFFFFFFFFFFFFFFFFFFFFFFFFFFFFFFFFFFF AND DUP2 MSTORE PUSH1 0x20 ADD SWAP1 DUP2 MSTORE PUSH1 0x20 ADD PUSH1 0x0 KECCAK256 PUSH1 0x0 CALLER PUSH20 0xFFFFFFFFFFFFFFFFFFFFFFFFFFFFFFFFFFFFFFFF AND PUSH20 0xFFFFFFFFFFFFFFFFFFFFFFFFFFFFFFFFFFFFFFFF AND DUP2 MSTORE PUSH1 0x20 ADD SWAP1 DUP2 MSTORE PUSH1 0x20 ADD PUSH1 0x0 KECCAK256 DUP2 SWAP1 SSTORE POP DUP2 PUSH1 0x3 PUSH1 0x0 DUP6 PUSH20 0xFFFFFFFFFFFFFFFFFFFFFFFFFFFFFFFFFFFFFFFF AND PUSH20 0xFFFFFFFFFFFFFFFFFFFFFFFFFFFFFFFFFFFFFFFF AND DUP2 MSTORE PUSH1 0x20 ADD SWAP1 DUP2 MSTORE PUSH1 0x20 ADD PUSH1 0x0 KECCAK256 SLOAD PUSH2 0x646 SWAP2 SWAP1 PUSH2 0xC6A JUMP JUMPDEST PUSH1 0x3 PUSH1 0x0 DUP6 PUSH20 0xFFFFFFFFFFFFFFFFFFFFFFFFFFFFFFFFFFFFFFFF AND PUSH20 0xFFFFFFFFFFFFFFFFFFFFFFFFFFFFFFFFFFFFFFFF AND DUP2 MSTORE PUSH1 0x20 ADD SWAP1 DUP2 MSTORE PUSH1 0x20 ADD PUSH1 0x0 KECCAK256 DUP2 SWAP1 SSTORE POP DUP3 PUSH20 0xFFFFFFFFFFFFFFFFFFFFFFFFFFFFFFFFFFFFFFFF AND DUP5 PUSH20 0xFFFFFFFFFFFFFFFFFFFFFFFFFFFFFFFFFFFFFFFF AND PUSH32 0xDDF252AD1BE2C89B69C2B068FC378DAA952BA7F163C4A11628F55A4DF523B3EF DUP5 PUSH1 0x40 MLOAD PUSH2 0x6E6 SWAP2 SWAP1 PUSH2 0xC18 JUMP JUMPDEST PUSH1 0x40 MLOAD DUP1 SWAP2 SUB SWAP1 LOG3 PUSH1 0x1 SWAP1 POP SWAP4 SWAP3 POP POP POP JUMP JUMPDEST PUSH1 0x0 PUSH1 0x2 PUSH1 0x0 SWAP1 SLOAD SWAP1 PUSH2 0x100 EXP SWAP1 DIV PUSH1 0xFF AND SWAP1 POP SWAP1 JUMP JUMPDEST PUSH1 0x0 PUSH1 0x3 PUSH1 0x0 DUP4 PUSH20 0xFFFFFFFFFFFFFFFFFFFFFFFFFFFFFFFFFFFFFFFF AND PUSH20 0xFFFFFFFFFFFFFFFFFFFFFFFFFFFFFFFFFFFFFFFF AND DUP2 MSTORE PUSH1 0x20 ADD SWAP1 DUP2 MSTORE PUSH1 0x20 ADD PUSH1 0x0 KECCAK256 SLOAD SWAP1 POP SWAP2 SWAP1 POP JUMP JUMPDEST PUSH1 0x60 PUSH1 0x1 DUP1 SLOAD PUSH2 0x768 SWAP1 PUSH2 0xD7C JUMP JUMPDEST DUP1 PUSH1 0x1F ADD PUSH1 0x20 DUP1 SWAP2 DIV MUL PUSH1 0x20 ADD PUSH1 0x40 MLOAD SWAP1 DUP2 ADD PUSH1 0x40 MSTORE DUP1 SWAP3 SWAP2 SWAP1 DUP2 DUP2 MSTORE PUSH1 0x20 ADD DUP3 DUP1 SLOAD PUSH2 0x794 SWAP1 PUSH2 0xD7C JUMP JUMPDEST DUP1 ISZERO PUSH2 0x7E1 JUMPI DUP1 PUSH1 0x1F LT PUSH2 0x7B6 JUMPI PUSH2 0x100 DUP1 DUP4 SLOAD DIV MUL DUP4 MSTORE SWAP2 PUSH1 0x20 ADD SWAP2 PUSH2 0x7E1 JUMP JUMPDEST DUP3 ADD SWAP2 SWAP1 PUSH1 0x0 MSTORE PUSH1 0x20 PUSH1 0x0 KECCAK256 SWAP1 JUMPDEST DUP2 SLOAD DUP2 MSTORE SWAP1 PUSH1 0x1 ADD SWAP1 PUSH1 0x20 ADD DUP1 DUP4 GT PUSH2 0x7C4 JUMPI DUP3 SWAP1 SUB PUSH1 0x1F AND DUP3 ADD SWAP2 JUMPDEST POP POP POP POP POP SWAP1 POP SWAP1 JUMP JUMPDEST PUSH1 0x0 PUSH1 0x3 PUSH1 0x0 CALLER PUSH20 0xFFFFFFFFFFFFFFFFFFFFFFFFFFFFFFFFFFFFFFFF AND PUSH20 0xFFFFFFFFFFFFFFFFFFFFFFFFFFFFFFFFFFFFFFFF AND DUP2 MSTORE PUSH1 0x20 ADD SWAP1 DUP2 MSTORE PUSH1 0x20 ADD PUSH1 0x0 KECCAK256 SLOAD DUP3 GT ISZERO PUSH2 0x839 JUMPI PUSH1 0x0 DUP1 REVERT JUMPDEST DUP2 PUSH1 0x3 PUSH1 0x0 CALLER PUSH20 0xFFFFFFFFFFFFFFFFFFFFFFFFFFFFFFFFFFFFFFFF AND PUSH20 0xFFFFFFFFFFFFFFFFFFFFFFFFFFFFFFFFFFFFFFFF AND DUP2 MSTORE PUSH1 0x20 ADD SWAP1 DUP2 MSTORE PUSH1 0x20 ADD PUSH1 0x0 KECCAK256 SLOAD PUSH2 0x884 SWAP2 SWAP1 PUSH2 0xCC0 JUMP JUMPDEST PUSH1 0x3 PUSH1 0x0 CALLER PUSH20 0xFFFFFFFFFFFFFFFFFFFFFFFFFFFFFFFFFFFFFFFF AND PUSH20 0xFFFFFFFFFFFFFFFFFFFFFFFFFFFFFFFFFFFFFFFF AND DUP2 MSTORE PUSH1 0x20 ADD SWAP1 DUP2 MSTORE PUSH1 0x20 ADD PUSH1 0x0 KECCAK256 DUP2 SWAP1 SSTORE POP DUP2 PUSH1 0x3 PUSH1 0x0 DUP6 PUSH20 0xFFFFFFFFFFFFFFFFFFFFFFFFFFFFFFFFFFFFFFFF AND PUSH20 0xFFFFFFFFFFFFFFFFFFFFFFFFFFFFFFFFFFFFFFFF AND DUP2 MSTORE PUSH1 0x20 ADD SWAP1 DUP2 MSTORE PUSH1 0x20 ADD PUSH1 0x0 KECCAK256 SLOAD PUSH2 0x912 SWAP2 SWAP1 PUSH2 0xC6A JUMP JUMPDEST PUSH1 0x3 PUSH1 0x0 DUP6 PUSH20 0xFFFFFFFFFFFFFFFFFFFFFFFFFFFFFFFFFFFFFFFF AND PUSH20 0xFFFFFFFFFFFFFFFFFFFFFFFFFFFFFFFFFFFFFFFF AND DUP2 MSTORE PUSH1 0x20 ADD SWAP1 DUP2 MSTORE PUSH1 0x20 ADD PUSH1 0x0 KECCAK256 DUP2 SWAP1 SSTORE POP DUP3 PUSH20 0xFFFFFFFFFFFFFFFFFFFFFFFFFFFFFFFFFFFFFFFF AND CALLER PUSH20 0xFFFFFFFFFFFFFFFFFFFFFFFFFFFFFFFFFFFFFFFF AND PUSH32 0xDDF252AD1BE2C89B69C2B068FC378DAA952BA7F163C4A11628F55A4DF523B3EF DUP5 PUSH1 0x40 MLOAD PUSH2 0x9B2 SWAP2 SWAP1 PUSH2 0xC18 JUMP JUMPDEST PUSH1 0x40 MLOAD DUP1 SWAP2 SUB SWAP1 LOG3 PUSH1 0x1 SWAP1 POP SWAP3 SWAP2 POP POP JUMP JUMPDEST PUSH1 0x0 PUSH1 0x4 PUSH1 0x0 DUP5 PUSH20 0xFFFFFFFFFFFFFFFFFFFFFFFFFFFFFFFFFFFFFFFF AND PUSH20 0xFFFFFFFFFFFFFFFFFFFFFFFFFFFFFFFFFFFFFFFF AND DUP2 MSTORE PUSH1 0x20 ADD SWAP1 DUP2 MSTORE PUSH1 0x20 ADD PUSH1 0x0 KECCAK256 PUSH1 0x0 DUP4 PUSH20 0xFFFFFFFFFFFFFFFFFFFFFFFFFFFFFFFFFFFFFFFF AND PUSH20 0xFFFFFFFFFFFFFFFFFFFFFFFFFFFFFFFFFFFFFFFF AND DUP2 MSTORE PUSH1 0x20 ADD SWAP1 DUP2 MSTORE PUSH1 0x20 ADD PUSH1 0x0 KECCAK256 SLOAD SWAP1 POP SWAP3 SWAP2 POP POP JUMP JUMPDEST PUSH1 0x0 DUP2 CALLDATALOAD SWAP1 POP PUSH2 0xA5A DUP2 PUSH2 0xE22 JUMP JUMPDEST SWAP3 SWAP2 POP POP JUMP JUMPDEST PUSH1 0x0 DUP2 CALLDATALOAD SWAP1 POP PUSH2 0xA6F DUP2 PUSH2 0xE39 JUMP JUMPDEST SWAP3 SWAP2 POP POP JUMP JUMPDEST PUSH1 0x0 PUSH1 0x20 DUP3 DUP5 SUB SLT ISZERO PUSH2 0xA8B JUMPI PUSH2 0xA8A PUSH2 0xE0C JUMP JUMPDEST JUMPDEST PUSH1 0x0 PUSH2 0xA99 DUP5 DUP3 DUP6 ADD PUSH2 0xA4B JUMP JUMPDEST SWAP2 POP POP SWAP3 SWAP2 POP POP JUMP JUMPDEST PUSH1 0x0 DUP1 PUSH1 0x40 DUP4 DUP6 SUB SLT ISZERO PUSH2 0xAB9 JUMPI PUSH2 0xAB8 PUSH2 0xE0C JUMP JUMPDEST JUMPDEST PUSH1 0x0 PUSH2 0xAC7 DUP6 DUP3 DUP7 ADD PUSH2 0xA4B JUMP JUMPDEST SWAP3 POP POP PUSH1 0x20 PUSH2 0xAD8 DUP6 DUP3 DUP7 ADD PUSH2 0xA4B JUMP JUMPDEST SWAP2 POP POP SWAP3 POP SWAP3 SWAP1 POP JUMP JUMPDEST PUSH1 0x0 DUP1 PUSH1 0x0 PUSH1 0x60 DUP5 DUP7 SUB SLT ISZERO PUSH2 0xAFB JUMPI PUSH2 0xAFA PUSH2 0xE0C JUMP JUMPDEST JUMPDEST PUSH1 0x0 PUSH2 0xB09 DUP7 DUP3 DUP8 ADD PUSH2 0xA4B JUMP JUMPDEST SWAP4 POP POP PUSH1 0x20 PUSH2 0xB1A DUP7 DUP3 DUP8 ADD PUSH2 0xA4B JUMP JUMPDEST SWAP3 POP POP PUSH1 0x40 PUSH2 0xB2B DUP7 DUP3 DUP8 ADD PUSH2 0xA60 JUMP JUMPDEST SWAP2 POP POP SWAP3 POP SWAP3 POP SWAP3 JUMP JUMPDEST PUSH1 0x0 DUP1 PUSH1 0x40 DUP4 DUP6 SUB SLT ISZERO PUSH2 0xB4C JUMPI PUSH2 0xB4B PUSH2 0xE0C JUMP JUMPDEST JUMPDEST PUSH1 0x0 PUSH2 0xB5A DUP6 DUP3 DUP7 ADD PUSH2 0xA4B JUMP JUMPDEST SWAP3 POP POP PUSH1 0x20 PUSH2 0xB6B DUP6 DUP3 DUP7 ADD PUSH2 0xA60 JUMP JUMPDEST SWAP2 POP POP SWAP3 POP SWAP3 SWAP1 POP JUMP JUMPDEST PUSH2 0xB7E DUP2 PUSH2 0xD06 JUMP JUMPDEST DUP3 MSTORE POP POP JUMP JUMPDEST PUSH1 0x0 PUSH2 0xB8F DUP3 PUSH2 0xC4E JUMP JUMPDEST PUSH2 0xB99 DUP2 DUP6 PUSH2 0xC59 JUMP JUMPDEST SWAP4 POP PUSH2 0xBA9 DUP2 DUP6 PUSH1 0x20 DUP7 ADD PUSH2 0xD49 JUMP JUMPDEST PUSH2 0xBB2 DUP2 PUSH2 0xE11 JUMP JUMPDEST DUP5 ADD SWAP2 POP POP SWAP3 SWAP2 POP POP JUMP JUMPDEST PUSH2 0xBC6 DUP2 PUSH2 0xD32 JUMP JUMPDEST DUP3 MSTORE POP POP JUMP JUMPDEST PUSH2 0xBD5 DUP2 PUSH2 0xD3C JUMP JUMPDEST DUP3 MSTORE POP POP JUMP JUMPDEST PUSH1 0x0 PUSH1 0x20 DUP3 ADD SWAP1 POP PUSH2 0xBF0 PUSH1 0x0 DUP4 ADD DUP5 PUSH2 0xB75 JUMP JUMPDEST SWAP3 SWAP2 POP POP JUMP JUMPDEST PUSH1 0x0 PUSH1 0x20 DUP3 ADD SWAP1 POP DUP2 DUP2 SUB PUSH1 0x0 DUP4 ADD MSTORE PUSH2 0xC10 DUP2 DUP5 PUSH2 0xB84 JUMP JUMPDEST SWAP1 POP SWAP3 SWAP2 POP POP JUMP JUMPDEST PUSH1 0x0 PUSH1 0x20 DUP3 ADD SWAP1 POP PUSH2 0xC2D PUSH1 0x0 DUP4 ADD DUP5 PUSH2 0xBBD JUMP JUMPDEST SWAP3 SWAP2 POP POP JUMP JUMPDEST PUSH1 0x0 PUSH1 0x20 DUP3 ADD SWAP1 POP PUSH2 0xC48 PUSH1 0x0 DUP4 ADD DUP5 PUSH2 0xBCC JUMP JUMPDEST SWAP3 SWAP2 POP POP JUMP JUMPDEST PUSH1 0x0 DUP2 MLOAD SWAP1 POP SWAP2 SWAP1 POP JUMP JUMPDEST PUSH1 0x0 DUP3 DUP3 MSTORE PUSH1 0x20 DUP3 ADD SWAP1 POP SWAP3 SWAP2 POP POP JUMP JUMPDEST PUSH1 0x0 PUSH2 0xC75 DUP3 PUSH2 0xD32 JUMP JUMPDEST SWAP2 POP PUSH2 0xC80 DUP4 PUSH2 0xD32 JUMP JUMPDEST SWAP3 POP DUP3 PUSH32 0xFFFFFFFFFFFFFFFFFFFFFFFFFFFFFFFFFFFFFFFFFFFFFFFFFFFFFFFFFFFFFFFF SUB DUP3 GT ISZERO PUSH2 0xCB5 JUMPI PUSH2 0xCB4 PUSH2 0xDAE JUMP JUMPDEST JUMPDEST DUP3 DUP3 ADD SWAP1 POP SWAP3 SWAP2 POP POP JUMP JUMPDEST PUSH1 0x0 PUSH2 0xCCB DUP3 PUSH2 0xD32 JUMP JUMPDEST SWAP2 POP PUSH2 0xCD6 DUP4 PUSH2 0xD32 JUMP JUMPDEST SWAP3 POP DUP3 DUP3 LT ISZERO PUSH2 0xCE9 JUMPI PUSH2 0xCE8 PUSH2 0xDAE JUMP JUMPDEST JUMPDEST DUP3 DUP3 SUB SWAP1 POP SWAP3 SWAP2 POP POP JUMP JUMPDEST PUSH1 0x0 PUSH2 0xCFF DUP3 PUSH2 0xD12 JUMP JUMPDEST SWAP1 POP SWAP2 SWAP1 POP JUMP JUMPDEST PUSH1 0x0 DUP2 ISZERO ISZERO SWAP1 POP SWAP2 SWAP1 POP JUMP JUMPDEST PUSH1 0x0 PUSH20 0xFFFFFFFFFFFFFFFFFFFFFFFFFFFFFFFFFFFFFFFF DUP3 AND SWAP1 POP SWAP2 SWAP1 POP JUMP JUMPDEST PUSH1 0x0 DUP2 SWAP1 POP SWAP2 SWAP1 POP JUMP JUMPDEST PUSH1 0x0 PUSH1 0xFF DUP3 AND SWAP1 POP SWAP2 SWAP1 POP JUMP JUMPDEST PUSH1 0x0 JUMPDEST DUP4 DUP2 LT ISZERO PUSH2 0xD67 JUMPI DUP1 DUP3 ADD MLOAD DUP2 DUP5 ADD MSTORE PUSH1 0x20 DUP2 ADD SWAP1 POP PUSH2 0xD4C JUMP JUMPDEST DUP4 DUP2 GT ISZERO PUSH2 0xD76 JUMPI PUSH1 0x0 DUP5 DUP5 ADD MSTORE JUMPDEST POP POP POP POP JUMP JUMPDEST PUSH1 0x0 PUSH1 0x2 DUP3 DIV SWAP1 POP PUSH1 0x1 DUP3 AND DUP1 PUSH2 0xD94 JUMPI PUSH1 0x7F DUP3 AND SWAP2 POP JUMPDEST PUSH1 0x20 DUP3 LT DUP2 EQ ISZERO PUSH2 0xDA8 JUMPI PUSH2 0xDA7 PUSH2 0xDDD JUMP JUMPDEST JUMPDEST POP SWAP2 SWAP1 POP JUMP JUMPDEST PUSH32 0x4E487B7100000000000000000000000000000000000000000000000000000000 PUSH1 0x0 MSTORE PUSH1 0x11 PUSH1 0x4 MSTORE PUSH1 0x24 PUSH1 0x0 REVERT JUMPDEST PUSH32 0x4E487B7100000000000000000000000000000000000000000000000000000000 PUSH1 0x0 MSTORE PUSH1 0x22 PUSH1 0x4 MSTORE PUSH1 0x24 PUSH1 0x0 REVERT JUMPDEST PUSH1 0x0 DUP1 REVERT JUMPDEST PUSH1 0x0 PUSH1 0x1F NOT PUSH1 0x1F DUP4 ADD AND SWAP1 POP SWAP2 SWAP1 POP JUMP JUMPDEST PUSH2 0xE2B DUP2 PUSH2 0xCF4 JUMP JUMPDEST DUP2 EQ PUSH2 0xE36 JUMPI PUSH1 0x0 DUP1 REVERT JUMPDEST POP JUMP JUMPDEST PUSH2 0xE42 DUP2 PUSH2 0xD32 JUMP JUMPDEST DUP2 EQ PUSH2 0xE4D JUMPI PUSH1 0x0 DUP1 REVERT JUMPDEST POP JUMP INVALID LOG2 PUSH5 0x6970667358 0x22 SLT KECCAK256 SWAP14 0x4B 0xAF LT SDIV 0xDC PUSH6 0x1BD882615F4C PUSH5 0x8EEC0748D4 0x49 0xC2 0x21 0xCC SHL STOP DUP6 0x26 0xB5 ADDRESS 0xA7 0xA7 0x25 PUSH5 0x736F6C6343 STOP ADDMOD SMOD STOP CALLER "
				},
				"gasEstimates": {
					"creation": {
						"codeDepositCost": "743600",
						"executionCost": "infinite",
						"totalCost": "infinite"
					},
					"external": {
						"allowance(address,address)": "infinite",
						"approve(address,uint256)": "infinite",
						"balanceOf(address)": "2863",
						"decimals()": "2479",
						"name()": "infinite",
						"symbol()": "infinite",
						"totalSupply()": "2482",
						"transfer(address,uint256)": "infinite",
						"transferFrom(address,address,uint256)": "infinite"
					}
				},
				"methodIdentifiers": {
					"allowance(address,address)": "dd62ed3e",
					"approve(address,uint256)": "095ea7b3",
					"balanceOf(address)": "70a08231",
					"decimals()": "313ce567",
					"name()": "06fdde03",
					"symbol()": "95d89b41",
					"totalSupply()": "18160ddd",
					"transfer(address,uint256)": "a9059cbb",
					"transferFrom(address,address,uint256)": "23b872dd"
				}
			},
			"storageLayout": {
				"storage": [
					{
						"astId": 4,
						"contract": "Project2.sol:ERC20",
						"label": "_name",
						"offset": 0,
						"slot": "0",
						"type": "t_string_storage"
					},
					{
						"astId": 7,
						"contract": "Project2.sol:ERC20",
						"label": "_symbol",
						"offset": 0,
						"slot": "1",
						"type": "t_string_storage"
					},
					{
						"astId": 10,
						"contract": "Project2.sol:ERC20",
						"label": "_decimal",
						"offset": 0,
						"slot": "2",
						"type": "t_uint8"
					},
					{
						"astId": 14,
						"contract": "Project2.sol:ERC20",
						"label": "_balances",
						"offset": 0,
						"slot": "3",
						"type": "t_mapping(t_address,t_uint256)"
					},
					{
						"astId": 20,
						"contract": "Project2.sol:ERC20",
						"label": "_allowed",
						"offset": 0,
						"slot": "4",
						"type": "t_mapping(t_address,t_mapping(t_address,t_uint256))"
					},
					{
						"astId": 22,
						"contract": "Project2.sol:ERC20",
						"label": "_totalSupply",
						"offset": 0,
						"slot": "5",
						"type": "t_uint256"
					}
				],
				"types": {
					"t_address": {
						"encoding": "inplace",
						"label": "address",
						"numberOfBytes": "20"
					},
					"t_mapping(t_address,t_mapping(t_address,t_uint256))": {
						"encoding": "mapping",
						"key": "t_address",
						"label": "mapping(address => mapping(address => uint256))",
						"numberOfBytes": "32",
						"value": "t_mapping(t_address,t_uint256)"
					},
					"t_mapping(t_address,t_uint256)": {
						"encoding": "mapping",
						"key": "t_address",
						"label": "mapping(address => uint256)",
						"numberOfBytes": "32",
						"value": "t_uint256"
					},
					"t_string_storage": {
						"encoding": "bytes",
						"label": "string",
						"numberOfBytes": "32"
					},
					"t_uint256": {
						"encoding": "inplace",
						"label": "uint256",
						"numberOfBytes": "32"
					},
					"t_uint8": {
						"encoding": "inplace",
						"label": "uint8",
						"numberOfBytes": "1"
					}
				}
			},
			"userdoc": {
				"kind": "user",
				"methods": {},
				"version": 1
			}
		}
	}
}